{"abi":[{"type":"constructor","inputs":[{"name":"admin","type":"address","internalType":"address"},{"name":"relayerWallet","type":"address","internalType":"address"}],"stateMutability":"nonpayable"},{"type":"function","name":"ADMIN_ROLE","inputs":[],"outputs":[{"name":"","type":"bytes32","internalType":"bytes32"}],"stateMutability":"view"},{"type":"function","name":"CLOCK_MODE","inputs":[],"outputs":[{"name":"","type":"string","internalType":"string"}],"stateMutability":"pure"},{"type":"function","name":"DEFAULT_ADMIN_ROLE","inputs":[],"outputs":[{"name":"","type":"bytes32","internalType":"bytes32"}],"stateMutability":"view"},{"type":"function","name":"DOMAIN_SEPARATOR","inputs":[],"outputs":[{"name":"","type":"bytes32","internalType":"bytes32"}],"stateMutability":"view"},{"type":"function","name":"MINTER_ROLE","inputs":[],"outputs":[{"name":"","type":"bytes32","internalType":"bytes32"}],"stateMutability":"view"},{"type":"function","name":"PAUSER_ROLE","inputs":[],"outputs":[{"name":"","type":"bytes32","internalType":"bytes32"}],"stateMutability":"view"},{"type":"function","name":"allowance","inputs":[{"name":"owner","type":"address","internalType":"address"},{"name":"spender","type":"address","internalType":"address"}],"outputs":[{"name":"","type":"uint256","internalType":"uint256"}],"stateMutability":"view"},{"type":"function","name":"approve","inputs":[{"name":"spender","type":"address","internalType":"address"},{"name":"value","type":"uint256","internalType":"uint256"}],"outputs":[{"name":"","type":"bool","internalType":"bool"}],"stateMutability":"nonpayable"},{"type":"function","name":"balanceOf","inputs":[{"name":"account","type":"address","internalType":"address"}],"outputs":[{"name":"","type":"uint256","internalType":"uint256"}],"stateMutability":"view"},{"type":"function","name":"burn","inputs":[{"name":"value","type":"uint256","internalType":"uint256"}],"outputs":[],"stateMutability":"nonpayable"},{"type":"function","name":"burnFrom","inputs":[{"name":"account","type":"address","internalType":"address"},{"name":"value","type":"uint256","internalType":"uint256"}],"outputs":[],"stateMutability":"nonpayable"},{"type":"function","name":"checkpoints","inputs":[{"name":"account","type":"address","internalType":"address"},{"name":"pos","type":"uint32","internalType":"uint32"}],"outputs":[{"name":"","type":"tuple","internalType":"struct Checkpoints.Checkpoint208","components":[{"name":"_key","type":"uint48","internalType":"uint48"},{"name":"_value","type":"uint208","internalType":"uint208"}]}],"stateMutability":"view"},{"type":"function","name":"clock","inputs":[],"outputs":[{"name":"","type":"uint48","internalType":"uint48"}],"stateMutability":"view"},{"type":"function","name":"decimals","inputs":[],"outputs":[{"name":"","type":"uint8","internalType":"uint8"}],"stateMutability":"view"},{"type":"function","name":"delegate","inputs":[{"name":"delegatee","type":"address","internalType":"address"}],"outputs":[],"stateMutability":"nonpayable"},{"type":"function","name":"delegateBySig","inputs":[{"name":"delegatee","type":"address","internalType":"address"},{"name":"nonce","type":"uint256","internalType":"uint256"},{"name":"expiry","type":"uint256","internalType":"uint256"},{"name":"v","type":"uint8","internalType":"uint8"},{"name":"r","type":"bytes32","internalType":"bytes32"},{"name":"s","type":"bytes32","internalType":"bytes32"}],"outputs":[],"stateMutability":"nonpayable"},{"type":"function","name":"delegates","inputs":[{"name":"account","type":"address","internalType":"address"}],"outputs":[{"name":"","type":"address","internalType":"address"}],"stateMutability":"view"},{"type":"function","name":"eip712Domain","inputs":[],"outputs":[{"name":"fields","type":"bytes1","internalType":"bytes1"},{"name":"name","type":"string","internalType":"string"},{"name":"version","type":"string","internalType":"string"},{"name":"chainId","type":"uint256","internalType":"uint256"},{"name":"verifyingContract","type":"address","internalType":"address"},{"name":"salt","type":"bytes32","internalType":"bytes32"},{"name":"extensions","type":"uint256[]","internalType":"uint256[]"}],"stateMutability":"view"},{"type":"function","name":"getPastTotalSupply","inputs":[{"name":"timepoint","type":"uint256","internalType":"uint256"}],"outputs":[{"name":"","type":"uint256","internalType":"uint256"}],"stateMutability":"view"},{"type":"function","name":"getPastVotes","inputs":[{"name":"account","type":"address","internalType":"address"},{"name":"timepoint","type":"uint256","internalType":"uint256"}],"outputs":[{"name":"","type":"uint256","internalType":"uint256"}],"stateMutability":"view"},{"type":"function","name":"getRoleAdmin","inputs":[{"name":"role","type":"bytes32","internalType":"bytes32"}],"outputs":[{"name":"","type":"bytes32","internalType":"bytes32"}],"stateMutability":"view"},{"type":"function","name":"getVotes","inputs":[{"name":"account","type":"address","internalType":"address"}],"outputs":[{"name":"","type":"uint256","internalType":"uint256"}],"stateMutability":"view"},{"type":"function","name":"grantRole","inputs":[{"name":"role","type":"bytes32","internalType":"bytes32"},{"name":"account","type":"address","internalType":"address"}],"outputs":[],"stateMutability":"nonpayable"},{"type":"function","name":"hasRole","inputs":[{"name":"role","type":"bytes32","internalType":"bytes32"},{"name":"account","type":"address","internalType":"address"}],"outputs":[{"name":"","type":"bool","internalType":"bool"}],"stateMutability":"view"},{"type":"function","name":"mint","inputs":[{"name":"to","type":"address","internalType":"address"},{"name":"amount","type":"uint256","internalType":"uint256"}],"outputs":[],"stateMutability":"nonpayable"},{"type":"function","name":"name","inputs":[],"outputs":[{"name":"","type":"string","internalType":"string"}],"stateMutability":"view"},{"type":"function","name":"nonces","inputs":[{"name":"owner","type":"address","internalType":"address"}],"outputs":[{"name":"","type":"uint256","internalType":"uint256"}],"stateMutability":"view"},{"type":"function","name":"numCheckpoints","inputs":[{"name":"account","type":"address","internalType":"address"}],"outputs":[{"name":"","type":"uint32","internalType":"uint32"}],"stateMutability":"view"},{"type":"function","name":"pause","inputs":[],"outputs":[],"stateMutability":"nonpayable"},{"type":"function","name":"paused","inputs":[],"outputs":[{"name":"","type":"bool","internalType":"bool"}],"stateMutability":"view"},{"type":"function","name":"permit","inputs":[{"name":"owner","type":"address","internalType":"address"},{"name":"spender","type":"address","internalType":"address"},{"name":"value","type":"uint256","internalType":"uint256"},{"name":"deadline","type":"uint256","internalType":"uint256"},{"name":"v","type":"uint8","internalType":"uint8"},{"name":"r","type":"bytes32","internalType":"bytes32"},{"name":"s","type":"bytes32","internalType":"bytes32"}],"outputs":[],"stateMutability":"nonpayable"},{"type":"function","name":"renounceRole","inputs":[{"name":"role","type":"bytes32","internalType":"bytes32"},{"name":"callerConfirmation","type":"address","internalType":"address"}],"outputs":[],"stateMutability":"nonpayable"},{"type":"function","name":"revokeRole","inputs":[{"name":"role","type":"bytes32","internalType":"bytes32"},{"name":"account","type":"address","internalType":"address"}],"outputs":[],"stateMutability":"nonpayable"},{"type":"function","name":"supportsInterface","inputs":[{"name":"interfaceId","type":"bytes4","internalType":"bytes4"}],"outputs":[{"name":"","type":"bool","internalType":"bool"}],"stateMutability":"view"},{"type":"function","name":"symbol","inputs":[],"outputs":[{"name":"","type":"string","internalType":"string"}],"stateMutability":"view"},{"type":"function","name":"totalSupply","inputs":[],"outputs":[{"name":"","type":"uint256","internalType":"uint256"}],"stateMutability":"view"},{"type":"function","name":"transfer","inputs":[{"name":"to","type":"address","internalType":"address"},{"name":"value","type":"uint256","internalType":"uint256"}],"outputs":[{"name":"","type":"bool","internalType":"bool"}],"stateMutability":"nonpayable"},{"type":"function","name":"transferFrom","inputs":[{"name":"from","type":"address","internalType":"address"},{"name":"to","type":"address","internalType":"address"},{"name":"value","type":"uint256","internalType":"uint256"}],"outputs":[{"name":"","type":"bool","internalType":"bool"}],"stateMutability":"nonpayable"},{"type":"function","name":"unpause","inputs":[],"outputs":[],"stateMutability":"nonpayable"},{"type":"event","name":"Approval","inputs":[{"name":"owner","type":"address","indexed":true,"internalType":"address"},{"name":"spender","type":"address","indexed":true,"internalType":"address"},{"name":"value","type":"uint256","indexed":false,"internalType":"uint256"}],"anonymous":false},{"type":"event","name":"DelegateChanged","inputs":[{"name":"delegator","type":"address","indexed":true,"internalType":"address"},{"name":"fromDelegate","type":"address","indexed":true,"internalType":"address"},{"name":"toDelegate","type":"address","indexed":true,"internalType":"address"}],"anonymous":false},{"type":"event","name":"DelegateVotesChanged","inputs":[{"name":"delegate","type":"address","indexed":true,"internalType":"address"},{"name":"previousVotes","type":"uint256","indexed":false,"internalType":"uint256"},{"name":"newVotes","type":"uint256","indexed":false,"internalType":"uint256"}],"anonymous":false},{"type":"event","name":"EIP712DomainChanged","inputs":[],"anonymous":false},{"type":"event","name":"Paused","inputs":[{"name":"account","type":"address","indexed":false,"internalType":"address"}],"anonymous":false},{"type":"event","name":"RoleAdminChanged","inputs":[{"name":"role","type":"bytes32","indexed":true,"internalType":"bytes32"},{"name":"previousAdminRole","type":"bytes32","indexed":true,"internalType":"bytes32"},{"name":"newAdminRole","type":"bytes32","indexed":true,"internalType":"bytes32"}],"anonymous":false},{"type":"event","name":"RoleGranted","inputs":[{"name":"role","type":"bytes32","indexed":true,"internalType":"bytes32"},{"name":"account","type":"address","indexed":true,"internalType":"address"},{"name":"sender","type":"address","indexed":true,"internalType":"address"}],"anonymous":false},{"type":"event","name":"RoleRevoked","inputs":[{"name":"role","type":"bytes32","indexed":true,"internalType":"bytes32"},{"name":"account","type":"address","indexed":true,"internalType":"address"},{"name":"sender","type":"address","indexed":true,"internalType":"address"}],"anonymous":false},{"type":"event","name":"Transfer","inputs":[{"name":"from","type":"address","indexed":true,"internalType":"address"},{"name":"to","type":"address","indexed":true,"internalType":"address"},{"name":"value","type":"uint256","indexed":false,"internalType":"uint256"}],"anonymous":false},{"type":"event","name":"Unpaused","inputs":[{"name":"account","type":"address","indexed":false,"internalType":"address"}],"anonymous":false},{"type":"error","name":"AccessControlBadConfirmation","inputs":[]},{"type":"error","name":"AccessControlUnauthorizedAccount","inputs":[{"name":"account","type":"address","internalType":"address"},{"name":"neededRole","type":"bytes32","internalType":"bytes32"}]},{"type":"error","name":"CheckpointUnorderedInsertion","inputs":[]},{"type":"error","name":"ECDSAInvalidSignature","inputs":[]},{"type":"error","name":"ECDSAInvalidSignatureLength","inputs":[{"name":"length","type":"uint256","internalType":"uint256"}]},{"type":"error","name":"ECDSAInvalidSignatureS","inputs":[{"name":"s","type":"bytes32","internalType":"bytes32"}]},{"type":"error","name":"ERC20ExceededSafeSupply","inputs":[{"name":"increasedSupply","type":"uint256","internalType":"uint256"},{"name":"cap","type":"uint256","internalType":"uint256"}]},{"type":"error","name":"ERC20InsufficientAllowance","inputs":[{"name":"spender","type":"address","internalType":"address"},{"name":"allowance","type":"uint256","internalType":"uint256"},{"name":"needed","type":"uint256","internalType":"uint256"}]},{"type":"error","name":"ERC20InsufficientBalance","inputs":[{"name":"sender","type":"address","internalType":"address"},{"name":"balance","type":"uint256","internalType":"uint256"},{"name":"needed","type":"uint256","internalType":"uint256"}]},{"type":"error","name":"ERC20InvalidApprover","inputs":[{"name":"approver","type":"address","internalType":"address"}]},{"type":"error","name":"ERC20InvalidReceiver","inputs":[{"name":"receiver","type":"address","internalType":"address"}]},{"type":"error","name":"ERC20InvalidSender","inputs":[{"name":"sender","type":"address","internalType":"address"}]},{"type":"error","name":"ERC20InvalidSpender","inputs":[{"name":"spender","type":"address","internalType":"address"}]},{"type":"error","name":"ERC2612ExpiredSignature","inputs":[{"name":"deadline","type":"uint256","internalType":"uint256"}]},{"type":"error","name":"ERC2612InvalidSigner","inputs":[{"name":"signer","type":"address","internalType":"address"},{"name":"owner","type":"address","internalType":"address"}]},{"type":"error","name":"ERC5805FutureLookup","inputs":[{"name":"timepoint","type":"uint256","internalType":"uint256"},{"name":"clock","type":"uint48","internalType":"uint48"}]},{"type":"error","name":"ERC6372InconsistentClock","inputs":[]},{"type":"error","name":"EnforcedPause","inputs":[]},{"type":"error","name":"ExpectedPause","inputs":[]},{"type":"error","name":"InvalidAccountNonce","inputs":[{"name":"account","type":"address","internalType":"address"},{"name":"currentNonce","type":"uint256","internalType":"uint256"}]},{"type":"error","name":"InvalidShortString","inputs":[]},{"type":"error","name":"SafeCastOverflowedUintDowncast","inputs":[{"name":"bits","type":"uint8","internalType":"uint8"},{"name":"value","type":"uint256","internalType":"uint256"}]},{"type":"error","name":"StringTooLong","inputs":[{"name":"str","type":"string","internalType":"string"}]},{"type":"error","name":"VotesExpiredSignature","inputs":[{"name":"expiry","type":"uint256","internalType":"uint256"}]}],"bytecode":{"object":"0x6101606040523480156200001257600080fd5b5060405162005f2c38038062005f2c833981810160405281019062000038919062001374565b6040518060400160405280601681526020017f556e694d6174652057656c6c6e65737320546f6b656e00000000000000000000815250806040518060400160405280600181526020017f31000000000000000000000000000000000000000000000000000000000000008152506040518060400160405280601681526020017f556e694d6174652057656c6c6e65737320546f6b656e000000000000000000008152506040518060400160405280600481526020017f57454c4c00000000000000000000000000000000000000000000000000000000815250816003908162000122919062001635565b50806004908162000134919062001635565b5050506200014d6007836200032160201b90919060201c565b61012081815250506200016b6008826200032160201b90919060201c565b6101408181525050818051906020012060e08181525050808051906020012061010081815250504660a08181525050620001aa6200037960201b60201c565b608081815250503073ffffffffffffffffffffffffffffffffffffffff1660c08173ffffffffffffffffffffffffffffffffffffffff1681525050505050620001fd6000801b83620003d660201b60201c565b50620002307fa49807205ce4d355092ef5a8a18f56e8913cf4a201fbe287825b095693c2177583620003d660201b60201c565b50620002637f9f2df0fed2c77648de5860a4cc508cd0818c85b8b8a1ab4ceeef8d981c8956a683620003d660201b60201c565b50620002967f65d7a28e3265b37a6474929f336521b332c1681b933f6cb9f3376673440d862a83620003d660201b60201c565b50620002c97f9f2df0fed2c77648de5860a4cc508cd0818c85b8b8a1ab4ceeef8d981c8956a682620003d660201b60201c565b50620002fc7f65d7a28e3265b37a6474929f336521b332c1681b933f6cb9f3376673440d862a82620003d660201b60201c565b50620003198269d3c21bcecceda1000000620004da60201b60201c565b505062001ba1565b600060208351101562000347576200033f836200056760201b60201c565b905062000373565b826200035983620005d460201b60201c565b60000190816200036a919062001635565b5060ff60001b90505b92915050565b60007f8b73c3c69bb8fe3d512ecc4cf759cc79239f7b179b0ffacaa9a75d522b39400f60e051610100514630604051602001620003bb95949392919062001759565b60405160208183030381529060405280519060200120905090565b6000620003ea8383620005de60201b60201c565b620004cf5760016006600085815260200190815260200160002060000160008473ffffffffffffffffffffffffffffffffffffffff1673ffffffffffffffffffffffffffffffffffffffff16815260200190815260200160002060006101000a81548160ff0219169083151502179055506200046b6200064960201b60201c565b73ffffffffffffffffffffffffffffffffffffffff168273ffffffffffffffffffffffffffffffffffffffff16847f2f8788117e7eff1d82e926ec794901d17c78024a50270940304540a733656f0d60405160405180910390a460019050620004d4565b600090505b92915050565b600073ffffffffffffffffffffffffffffffffffffffff168273ffffffffffffffffffffffffffffffffffffffff16036200054f5760006040517fec442f05000000000000000000000000000000000000000000000000000000008152600401620005469190620017b6565b60405180910390fd5b62000563600083836200065160201b60201c565b5050565b600080829050601f81511115620005b757826040517f305a27a9000000000000000000000000000000000000000000000000000000008152600401620005ae919062001862565b60405180910390fd5b805181620005c590620018b8565b60001c1760001b915050919050565b6000819050919050565b60006006600084815260200190815260200160002060000160008373ffffffffffffffffffffffffffffffffffffffff1673ffffffffffffffffffffffffffffffffffffffff16815260200190815260200160002060009054906101000a900460ff16905092915050565b600033905090565b620006648383836200066960201b60201c565b505050565b6200067c8383836200073e60201b60201c565b600073ffffffffffffffffffffffffffffffffffffffff168373ffffffffffffffffffffffffffffffffffffffff160362000726576000620006c36200076660201b60201c565b90506000620006d76200077060201b60201c565b905080821115620007235781816040517f1cb15d260000000000000000000000000000000000000000000000000000000081526004016200071a92919062001928565b60405180910390fd5b50505b620007398383836200079460201b60201c565b505050565b6200074e6200089a60201b60201c565b62000761838383620008e460201b60201c565b505050565b6000600254905090565b600079ffffffffffffffffffffffffffffffffffffffffffffffffffff8016905090565b600073ffffffffffffffffffffffffffffffffffffffff168373ffffffffffffffffffffffffffffffffffffffff1603620007fb57620007f8600c62000b1460201b620011df17620007ec8462000b2c60201b60201c565b62000b9d60201b60201c565b50505b600073ffffffffffffffffffffffffffffffffffffffff168273ffffffffffffffffffffffffffffffffffffffff160362000862576200085f600c62000bed60201b620011f517620008538462000b2c60201b60201c565b62000b9d60201b60201c565b50505b62000895620008778462000c0560201b60201c565b620008888462000c0560201b60201c565b8362000c6e60201b60201c565b505050565b620008aa62000f2160201b60201c565b15620008e2576040517fd93c066500000000000000000000000000000000000000000000000000000000815260040160405180910390fd5b565b600073ffffffffffffffffffffffffffffffffffffffff168373ffffffffffffffffffffffffffffffffffffffff16036200093a5780600260008282546200092d919062001984565b9250508190555062000a10565b60008060008573ffffffffffffffffffffffffffffffffffffffff1673ffffffffffffffffffffffffffffffffffffffff16815260200190815260200160002054905081811015620009c9578381836040517fe450d38c000000000000000000000000000000000000000000000000000000008152600401620009c093929190620019bf565b60405180910390fd5b8181036000808673ffffffffffffffffffffffffffffffffffffffff1673ffffffffffffffffffffffffffffffffffffffff16815260200190815260200160002081905550505b600073ffffffffffffffffffffffffffffffffffffffff168273ffffffffffffffffffffffffffffffffffffffff160362000a5b578060026000828254039250508190555062000aa8565b806000808473ffffffffffffffffffffffffffffffffffffffff1673ffffffffffffffffffffffffffffffffffffffff168152602001908152602001600020600082825401925050819055505b8173ffffffffffffffffffffffffffffffffffffffff168373ffffffffffffffffffffffffffffffffffffffff167fddf252ad1be2c89b69c2b068fc378daa952ba7f163c4a11628f55a4df523b3ef8360405162000b079190620019fc565b60405180910390a3505050565b6000818362000b24919062001a3f565b905092915050565b600079ffffffffffffffffffffffffffffffffffffffffffffffffffff801682111562000b955760d0826040517f6dfcc65000000000000000000000000000000000000000000000000000000000815260040162000b8c92919062001ae4565b60405180910390fd5b819050919050565b60008062000be162000bb462000f3860201b60201c565b62000bd062000bc98862000f4060201b60201c565b868860201c565b8762000fb460201b9092919060201c565b91509150935093915050565b6000818362000bfd919062001b11565b905092915050565b6000600a60008373ffffffffffffffffffffffffffffffffffffffff1673ffffffffffffffffffffffffffffffffffffffff16815260200190815260200160002060009054906101000a900473ffffffffffffffffffffffffffffffffffffffff169050919050565b8173ffffffffffffffffffffffffffffffffffffffff168373ffffffffffffffffffffffffffffffffffffffff161415801562000cab5750600081115b1562000f1c57600073ffffffffffffffffffffffffffffffffffffffff168373ffffffffffffffffffffffffffffffffffffffff161462000de65760008062000d55600b60008773ffffffffffffffffffffffffffffffffffffffff1673ffffffffffffffffffffffffffffffffffffffff16815260200190815260200160002062000bed60201b620011f51762000d498662000b2c60201b60201c565b62000b9d60201b60201c565b79ffffffffffffffffffffffffffffffffffffffffffffffffffff16915079ffffffffffffffffffffffffffffffffffffffffffffffffffff1691508473ffffffffffffffffffffffffffffffffffffffff167fdec2bacdd2f05b59de34da9b523dff8be42e5e38e818c82fdb0bae774387a724838360405162000ddb92919062001928565b60405180910390a250505b600073ffffffffffffffffffffffffffffffffffffffff168273ffffffffffffffffffffffffffffffffffffffff161462000f1b5760008062000e8a600b60008673ffffffffffffffffffffffffffffffffffffffff1673ffffffffffffffffffffffffffffffffffffffff16815260200190815260200160002062000b1460201b620011df1762000e7e8662000b2c60201b60201c565b62000b9d60201b60201c565b79ffffffffffffffffffffffffffffffffffffffffffffffffffff16915079ffffffffffffffffffffffffffffffffffffffffffffffffffff1691508373ffffffffffffffffffffffffffffffffffffffff167fdec2bacdd2f05b59de34da9b523dff8be42e5e38e818c82fdb0bae774387a724838360405162000f1092919062001928565b60405180910390a250505b5b505050565b6000600560009054906101000a900460ff16905090565b600042905090565b600080826000018054905090506000811462000fa95762000f798360000160018362000f6d919062001b66565b62000fd960201b60201c565b60000160069054906101000a900479ffffffffffffffffffffffffffffffffffffffffffffffffffff1662000fac565b60005b915050919050565b60008062000fcd85600001858562000fee60201b60201c565b91509150935093915050565b60008260005281602060002001905092915050565b60008060008580549050905060008111156200121a57600062001026876001846200101a919062001b66565b62000fd960201b60201c565b905060008160000160009054906101000a900465ffffffffffff16905060008260000160069054906101000a900479ffffffffffffffffffffffffffffffffffffffffffffffffffff1690508765ffffffffffff168265ffffffffffff161115620010bd576040517f2520601d00000000000000000000000000000000000000000000000000000000815260040160405180910390fd5b8765ffffffffffff168265ffffffffffff16036200112a57868360000160066101000a81548179ffffffffffffffffffffffffffffffffffffffffffffffffffff021916908379ffffffffffffffffffffffffffffffffffffffffffffffffffff1602179055506200120a565b8860405180604001604052808a65ffffffffffff1681526020018979ffffffffffffffffffffffffffffffffffffffffffffffffffff168152509080600181540180825580915050600190039060005260206000200160009091909190915060008201518160000160006101000a81548165ffffffffffff021916908365ffffffffffff16021790555060208201518160000160066101000a81548179ffffffffffffffffffffffffffffffffffffffffffffffffffff021916908379ffffffffffffffffffffffffffffffffffffffffffffffffffff16021790555050505b8087955095505050505062001302565b8560405180604001604052808765ffffffffffff1681526020018679ffffffffffffffffffffffffffffffffffffffffffffffffffff168152509080600181540180825580915050600190039060005260206000200160009091909190915060008201518160000160006101000a81548165ffffffffffff021916908365ffffffffffff16021790555060208201518160000160066101000a81548179ffffffffffffffffffffffffffffffffffffffffffffffffffff021916908379ffffffffffffffffffffffffffffffffffffffffffffffffffff160217905550505060008492509250505b935093915050565b600080fd5b600073ffffffffffffffffffffffffffffffffffffffff82169050919050565b60006200133c826200130f565b9050919050565b6200134e816200132f565b81146200135a57600080fd5b50565b6000815190506200136e8162001343565b92915050565b600080604083850312156200138e576200138d6200130a565b5b60006200139e858286016200135d565b9250506020620013b1858286016200135d565b9150509250929050565b600081519050919050565b7f4e487b7100000000000000000000000000000000000000000000000000000000600052604160045260246000fd5b7f4e487b7100000000000000000000000000000000000000000000000000000000600052602260045260246000fd5b600060028204905060018216806200143d57607f821691505b602082108103620014535762001452620013f5565b5b50919050565b60008190508160005260206000209050919050565b60006020601f8301049050919050565b600082821b905092915050565b600060088302620014bd7fffffffffffffffffffffffffffffffffffffffffffffffffffffffffffffffff826200147e565b620014c986836200147e565b95508019841693508086168417925050509392505050565b6000819050919050565b6000819050919050565b600062001516620015106200150a84620014e1565b620014eb565b620014e1565b9050919050565b6000819050919050565b6200153283620014f5565b6200154a62001541826200151d565b8484546200148b565b825550505050565b600090565b6200156162001552565b6200156e81848462001527565b505050565b5b8181101562001596576200158a60008262001557565b60018101905062001574565b5050565b601f821115620015e557620015af8162001459565b620015ba846200146e565b81016020851015620015ca578190505b620015e2620015d9856200146e565b83018262001573565b50505b505050565b600082821c905092915050565b60006200160a60001984600802620015ea565b1980831691505092915050565b6000620016258383620015f7565b9150826002028217905092915050565b6200164082620013bb565b67ffffffffffffffff8111156200165c576200165b620013c6565b5b62001668825462001424565b620016758282856200159a565b600060209050601f831160018114620016ad576000841562001698578287015190505b620016a4858262001617565b86555062001714565b601f198416620016bd8662001459565b60005b82811015620016e757848901518255600182019150602085019450602081019050620016c0565b8683101562001707578489015162001703601f891682620015f7565b8355505b6001600288020188555050505b505050505050565b6000819050919050565b62001731816200171c565b82525050565b6200174281620014e1565b82525050565b62001753816200132f565b82525050565b600060a08201905062001770600083018862001726565b6200177f602083018762001726565b6200178e604083018662001726565b6200179d606083018562001737565b620017ac608083018462001748565b9695505050505050565b6000602082019050620017cd600083018462001748565b92915050565b600082825260208201905092915050565b60005b8381101562001804578082015181840152602081019050620017e7565b60008484015250505050565b6000601f19601f8301169050919050565b60006200182e82620013bb565b6200183a8185620017d3565b93506200184c818560208601620017e4565b620018578162001810565b840191505092915050565b600060208201905081810360008301526200187e818462001821565b905092915050565b600081519050919050565b6000819050602082019050919050565b6000620018af82516200171c565b80915050919050565b6000620018c58262001886565b82620018d18462001891565b9050620018de81620018a1565b9250602082101562001921576200191c7fffffffffffffffffffffffffffffffffffffffffffffffffffffffffffffffff836020036008026200147e565b831692505b5050919050565b60006040820190506200193f600083018562001737565b6200194e602083018462001737565b9392505050565b7f4e487b7100000000000000000000000000000000000000000000000000000000600052601160045260246000fd5b60006200199182620014e1565b91506200199e83620014e1565b9250828201905080821115620019b957620019b862001955565b5b92915050565b6000606082019050620019d6600083018662001748565b620019e5602083018562001737565b620019f4604083018462001737565b949350505050565b600060208201905062001a13600083018462001737565b92915050565b600079ffffffffffffffffffffffffffffffffffffffffffffffffffff82169050919050565b600062001a4c8262001a19565b915062001a598362001a19565b9250828201905079ffffffffffffffffffffffffffffffffffffffffffffffffffff81111562001a8e5762001a8d62001955565b5b92915050565b6000819050919050565b600060ff82169050919050565b600062001acc62001ac662001ac08462001a94565b620014eb565b62001a9e565b9050919050565b62001ade8162001aab565b82525050565b600060408201905062001afb600083018562001ad3565b62001b0a602083018462001737565b9392505050565b600062001b1e8262001a19565b915062001b2b8362001a19565b9250828203905079ffffffffffffffffffffffffffffffffffffffffffffffffffff81111562001b605762001b5f62001955565b5b92915050565b600062001b7382620014e1565b915062001b8083620014e1565b925082820390508181111562001b9b5762001b9a62001955565b5b92915050565b60805160a05160c05160e05161010051610120516101405161433062001bfc6000396000611bca01526000611b8f015260006120a6015260006120850152600061153201526000611588015260006115b101526143306000f3fe608060405234801561001057600080fd5b506004361061023d5760003560e01c806370a082311161013b5780639ab24eb0116100b8578063d53913931161007c578063d5391393146106f6578063d547741f14610714578063dd62ed3e14610730578063e63ab1e914610760578063f1127ed81461077e5761023d565b80639ab24eb014610640578063a217fddf14610670578063a9059cbb1461068e578063c3cda520146106be578063d505accf146106da5761023d565b806384b0196e116100ff57806384b0196e146105805780638e539e8c146105a457806391d14854146105d457806391ddadf41461060457806395d89b41146106225761023d565b806370a08231146104dc57806375b238fc1461050c57806379cc67901461052a5780637ecebe00146105465780638456cb59146105765761023d565b806336568abe116101c95780634bf5d7e91161018d5780634bf5d7e914610424578063587cde1e146104425780635c19a95c146104725780635c975abb1461048e5780636fcfff45146104ac5761023d565b806336568abe146103965780633a46b1a8146103b25780633f4ba83a146103e257806340c10f19146103ec57806342966c68146104085761023d565b806323b872dd1161021057806323b872dd146102de578063248a9ca31461030e5780632f2ff15d1461033e578063313ce5671461035a5780633644e515146103785761023d565b806301ffc9a71461024257806306fdde0314610272578063095ea7b31461029057806318160ddd146102c0575b600080fd5b61025c6004803603810190610257919061348c565b6107ae565b60405161026991906134d4565b60405180910390f35b61027a6107c0565b604051610287919061357f565b60405180910390f35b6102aa60048036038101906102a59190613635565b610852565b6040516102b791906134d4565b60405180910390f35b6102c8610875565b6040516102d59190613684565b60405180910390f35b6102f860048036038101906102f3919061369f565b61087f565b60405161030591906134d4565b60405180910390f35b61032860048036038101906103239190613728565b6108ae565b6040516103359190613764565b60405180910390f35b6103586004803603810190610353919061377f565b6108ce565b005b6103626108f0565b60405161036f91906137db565b60405180910390f35b6103806108f9565b60405161038d9190613764565b60405180910390f35b6103b060048036038101906103ab919061377f565b610908565b005b6103cc60048036038101906103c79190613635565b610983565b6040516103d99190613684565b60405180910390f35b6103ea610a02565b005b61040660048036038101906104019190613635565b610a37565b005b610422600480360381019061041d91906137f6565b610a70565b005b61042c610a84565b604051610439919061357f565b60405180910390f35b61045c60048036038101906104579190613823565b610ac1565b604051610469919061385f565b60405180910390f35b61048c60048036038101906104879190613823565b610b2a565b005b610496610b44565b6040516104a391906134d4565b60405180910390f35b6104c660048036038101906104c19190613823565b610b5b565b6040516104d39190613899565b60405180910390f35b6104f660048036038101906104f19190613823565b610b6d565b6040516105039190613684565b60405180910390f35b610514610bb5565b6040516105219190613764565b60405180910390f35b610544600480360381019061053f9190613635565b610bd9565b005b610560600480360381019061055b9190613823565b610bf9565b60405161056d9190613684565b60405180910390f35b61057e610c0b565b005b610588610c40565b60405161059b97969594939291906139ad565b60405180910390f35b6105be60048036038101906105b991906137f6565b610cea565b6040516105cb9190613684565b60405180910390f35b6105ee60048036038101906105e9919061377f565b610d2b565b6040516105fb91906134d4565b60405180910390f35b61060c610d96565b6040516106199190613a52565b60405180910390f35b61062a610d9e565b604051610637919061357f565b60405180910390f35b61065a60048036038101906106559190613823565b610e30565b6040516106679190613684565b60405180910390f35b610678610e9c565b6040516106859190613764565b60405180910390f35b6106a860048036038101906106a39190613635565b610ea3565b6040516106b591906134d4565b60405180910390f35b6106d860048036038101906106d39190613a99565b610ec6565b005b6106f460048036038101906106ef9190613b26565b610f8c565b005b6106fe6110d4565b60405161070b9190613764565b60405180910390f35b61072e6004803603810190610729919061377f565b6110f8565b005b61074a60048036038101906107459190613bc8565b61111a565b6040516107579190613684565b60405180910390f35b6107686111a1565b6040516107759190613764565b60405180910390f35b61079860048036038101906107939190613c34565b6111c5565b6040516107a59190613ce7565b60405180910390f35b60006107b98261120b565b9050919050565b6060600380546107cf90613d31565b80601f01602080910402602001604051908101604052809291908181526020018280546107fb90613d31565b80156108485780601f1061081d57610100808354040283529160200191610848565b820191906000526020600020905b81548152906001019060200180831161082b57829003601f168201915b5050505050905090565b60008061085d611285565b905061086a81858561128d565b600191505092915050565b6000600254905090565b60008061088a611285565b905061089785828561129f565b6108a2858585611334565b60019150509392505050565b600060066000838152602001908152602001600020600101549050919050565b6108d7826108ae565b6108e081611428565b6108ea838361143c565b50505050565b60006012905090565b600061090361152e565b905090565b610910611285565b73ffffffffffffffffffffffffffffffffffffffff168173ffffffffffffffffffffffffffffffffffffffff1614610974576040517f6697b23200000000000000000000000000000000000000000000000000000000815260040160405180910390fd5b61097e82826115e5565b505050565b60006109de610991836116d8565b600b60008673ffffffffffffffffffffffffffffffffffffffff1673ffffffffffffffffffffffffffffffffffffffff16815260200190815260200160002061174490919063ffffffff16565b79ffffffffffffffffffffffffffffffffffffffffffffffffffff16905092915050565b7f65d7a28e3265b37a6474929f336521b332c1681b933f6cb9f3376673440d862a610a2c81611428565b610a3461183e565b50565b7f9f2df0fed2c77648de5860a4cc508cd0818c85b8b8a1ab4ceeef8d981c8956a6610a6181611428565b610a6b83836118a1565b505050565b610a81610a7b611285565b82611923565b50565b60606040518060400160405280600e81526020017f6d6f64653d74696d657374616d70000000000000000000000000000000000000815250905090565b6000600a60008373ffffffffffffffffffffffffffffffffffffffff1673ffffffffffffffffffffffffffffffffffffffff16815260200190815260200160002060009054906101000a900473ffffffffffffffffffffffffffffffffffffffff169050919050565b6000610b34611285565b9050610b4081836119a5565b5050565b6000600560009054906101000a900460ff16905090565b6000610b6682611ab9565b9050919050565b60008060008373ffffffffffffffffffffffffffffffffffffffff1673ffffffffffffffffffffffffffffffffffffffff168152602001908152602001600020549050919050565b7fa49807205ce4d355092ef5a8a18f56e8913cf4a201fbe287825b095693c2177581565b610beb82610be5611285565b8361129f565b610bf58282611923565b5050565b6000610c0482611b11565b9050919050565b7f65d7a28e3265b37a6474929f336521b332c1681b933f6cb9f3376673440d862a610c3581611428565b610c3d611b23565b50565b600060608060008060006060610c54611b86565b610c5c611bc1565b46306000801b600067ffffffffffffffff811115610c7d57610c7c613d62565b5b604051908082528060200260200182016040528015610cab5781602001602082028036833780820191505090505b507f0f00000000000000000000000000000000000000000000000000000000000000959493929190965096509650965096509650965090919293949596565b6000610d08610cf8836116d8565b600c61174490919063ffffffff16565b79ffffffffffffffffffffffffffffffffffffffffffffffffffff169050919050565b60006006600084815260200190815260200160002060000160008373ffffffffffffffffffffffffffffffffffffffff1673ffffffffffffffffffffffffffffffffffffffff16815260200190815260200160002060009054906101000a900460ff16905092915050565b600042905090565b606060048054610dad90613d31565b80601f0160208091040260200160405190810160405280929190818152602001828054610dd990613d31565b8015610e265780601f10610dfb57610100808354040283529160200191610e26565b820191906000526020600020905b815481529060010190602001808311610e0957829003601f168201915b5050505050905090565b6000610e79600b60008473ffffffffffffffffffffffffffffffffffffffff1673ffffffffffffffffffffffffffffffffffffffff168152602001908152602001600020611bfc565b79ffffffffffffffffffffffffffffffffffffffffffffffffffff169050919050565b6000801b81565b600080610eae611285565b9050610ebb818585611334565b600191505092915050565b83421115610f0b57836040517f4683af0e000000000000000000000000000000000000000000000000000000008152600401610f029190613684565b60405180910390fd5b6000610f6d610f657fe48329057bfd03d55e49b547132e39cffd9c1820ad7b9d4c5307691425d15adf898989604051602001610f4a9493929190613d91565b60405160208183030381529060405280519060200120611c64565b858585611c7e565b9050610f798187611cae565b610f8381886119a5565b50505050505050565b83421115610fd157836040517f62791302000000000000000000000000000000000000000000000000000000008152600401610fc89190613684565b60405180910390fd5b60007f6e71edae12b1b97f4d1f60370fef10105fa2faae0126114a169c64845d6126c98888886110008c611d06565b8960405160200161101696959493929190613dd6565b604051602081830303815290604052805190602001209050600061103982611c64565b9050600061104982878787611c7e565b90508973ffffffffffffffffffffffffffffffffffffffff168173ffffffffffffffffffffffffffffffffffffffff16146110bd57808a6040517f4b800e460000000000000000000000000000000000000000000000000000000081526004016110b4929190613e37565b60405180910390fd5b6110c88a8a8a61128d565b50505050505050505050565b7f9f2df0fed2c77648de5860a4cc508cd0818c85b8b8a1ab4ceeef8d981c8956a681565b611101826108ae565b61110a81611428565b61111483836115e5565b50505050565b6000600160008473ffffffffffffffffffffffffffffffffffffffff1673ffffffffffffffffffffffffffffffffffffffff16815260200190815260200160002060008373ffffffffffffffffffffffffffffffffffffffff1673ffffffffffffffffffffffffffffffffffffffff16815260200190815260200160002054905092915050565b7f65d7a28e3265b37a6474929f336521b332c1681b933f6cb9f3376673440d862a81565b6111cd6133f1565b6111d78383611d5d565b905092915050565b600081836111ed9190613e8f565b905092915050565b600081836112039190613edd565b905092915050565b60007f7965db0b000000000000000000000000000000000000000000000000000000007bffffffffffffffffffffffffffffffffffffffffffffffffffffffff1916827bffffffffffffffffffffffffffffffffffffffffffffffffffffffff1916148061127e575061127d82611dbe565b5b9050919050565b600033905090565b61129a8383836001611e28565b505050565b60006112ab848461111a565b90507fffffffffffffffffffffffffffffffffffffffffffffffffffffffffffffffff81101561132e578181101561131e578281836040517ffb8f41b200000000000000000000000000000000000000000000000000000000815260040161131593929190613f2b565b60405180910390fd5b61132d84848484036000611e28565b5b50505050565b600073ffffffffffffffffffffffffffffffffffffffff168373ffffffffffffffffffffffffffffffffffffffff16036113a65760006040517f96c6fd1e00000000000000000000000000000000000000000000000000000000815260040161139d919061385f565b60405180910390fd5b600073ffffffffffffffffffffffffffffffffffffffff168273ffffffffffffffffffffffffffffffffffffffff16036114185760006040517fec442f0500000000000000000000000000000000000000000000000000000000815260040161140f919061385f565b60405180910390fd5b611423838383611fff565b505050565b61143981611434611285565b61200f565b50565b60006114488383610d2b565b6115235760016006600085815260200190815260200160002060000160008473ffffffffffffffffffffffffffffffffffffffff1673ffffffffffffffffffffffffffffffffffffffff16815260200190815260200160002060006101000a81548160ff0219169083151502179055506114c0611285565b73ffffffffffffffffffffffffffffffffffffffff168273ffffffffffffffffffffffffffffffffffffffff16847f2f8788117e7eff1d82e926ec794901d17c78024a50270940304540a733656f0d60405160405180910390a460019050611528565b600090505b92915050565b60007f000000000000000000000000000000000000000000000000000000000000000073ffffffffffffffffffffffffffffffffffffffff163073ffffffffffffffffffffffffffffffffffffffff161480156115aa57507f000000000000000000000000000000000000000000000000000000000000000046145b156115d7577f000000000000000000000000000000000000000000000000000000000000000090506115e2565b6115df612060565b90505b90565b60006115f18383610d2b565b156116cd5760006006600085815260200190815260200160002060000160008473ffffffffffffffffffffffffffffffffffffffff1673ffffffffffffffffffffffffffffffffffffffff16815260200190815260200160002060006101000a81548160ff02191690831515021790555061166a611285565b73ffffffffffffffffffffffffffffffffffffffff168273ffffffffffffffffffffffffffffffffffffffff16847ff6391f5c32d9c69d2a47ea670b442974b53935d1edc7fd64eb21e047a839171b60405160405180910390a4600190506116d2565b600090505b92915050565b6000806116e3610d96565b90508065ffffffffffff1683106117335782816040517fecd3f81e00000000000000000000000000000000000000000000000000000000815260040161172a929190613f62565b60405180910390fd5b61173c836120f6565b915050919050565b6000808360000180549050905060008082905060058311156117cc57600061176b84612150565b846117769190613f8b565b905061178587600001826122ed565b60000160009054906101000a900465ffffffffffff1665ffffffffffff168665ffffffffffff1610156117ba578091506117ca565b6001816117c79190613fbf565b92505b505b60006117dd87600001878585612302565b90506000811461182f57611800876000016001836117fb9190613f8b565b6122ed565b60000160069054906101000a900479ffffffffffffffffffffffffffffffffffffffffffffffffffff16611832565b60005b94505050505092915050565b61184661237b565b6000600560006101000a81548160ff0219169083151502179055507f5db9ee0a495bf2e6ff9c91a7834c1ba4fdd244a5e8aa4e537bd38aeae4b073aa61188a611285565b604051611897919061385f565b60405180910390a1565b600073ffffffffffffffffffffffffffffffffffffffff168273ffffffffffffffffffffffffffffffffffffffff16036119135760006040517fec442f0500000000000000000000000000000000000000000000000000000000815260040161190a919061385f565b60405180910390fd5b61191f60008383611fff565b5050565b600073ffffffffffffffffffffffffffffffffffffffff168273ffffffffffffffffffffffffffffffffffffffff16036119955760006040517f96c6fd1e00000000000000000000000000000000000000000000000000000000815260040161198c919061385f565b60405180910390fd5b6119a182600083611fff565b5050565b60006119b083610ac1565b905081600a60008573ffffffffffffffffffffffffffffffffffffffff1673ffffffffffffffffffffffffffffffffffffffff16815260200190815260200160002060006101000a81548173ffffffffffffffffffffffffffffffffffffffff021916908373ffffffffffffffffffffffffffffffffffffffff1602179055508173ffffffffffffffffffffffffffffffffffffffff168173ffffffffffffffffffffffffffffffffffffffff168473ffffffffffffffffffffffffffffffffffffffff167f3134e8a2e6d97e929a7e54011ea5485d7d196dd5f0ba4d4ef95803e8e3fc257f60405160405180910390a4611ab48183611aaf866123bb565b6123cd565b505050565b6000611b0a611b05600b60008573ffffffffffffffffffffffffffffffffffffffff1673ffffffffffffffffffffffffffffffffffffffff168152602001908152602001600020612646565b612657565b9050919050565b6000611b1c826126af565b9050919050565b611b2b6126f8565b6001600560006101000a81548160ff0219169083151502179055507f62e78cea01bee320cd4e420270b5ea74000d11b0c9f74754ebdbfc544b05a258611b6f611285565b604051611b7c919061385f565b60405180910390a1565b6060611bbc60077f000000000000000000000000000000000000000000000000000000000000000061273990919063ffffffff16565b905090565b6060611bf760087f000000000000000000000000000000000000000000000000000000000000000061273990919063ffffffff16565b905090565b6000808260000180549050905060008114611c5957611c2a83600001600183611c259190613f8b565b6122ed565b60000160069054906101000a900479ffffffffffffffffffffffffffffffffffffffffffffffffffff16611c5c565b60005b915050919050565b6000611c77611c7161152e565b836127e9565b9050919050565b600080600080611c908888888861282a565b925092509250611ca0828261291e565b829350505050949350505050565b6000611cb983611d06565b9050808214611d015782816040517f752d88c0000000000000000000000000000000000000000000000000000000008152600401611cf8929190613ff3565b60405180910390fd5b505050565b6000600960008373ffffffffffffffffffffffffffffffffffffffff1673ffffffffffffffffffffffffffffffffffffffff1681526020019081526020016000206000815480929190600101919050559050919050565b611d656133f1565b611db682600b60008673ffffffffffffffffffffffffffffffffffffffff1673ffffffffffffffffffffffffffffffffffffffff168152602001908152602001600020612a8290919063ffffffff16565b905092915050565b60007f01ffc9a7000000000000000000000000000000000000000000000000000000007bffffffffffffffffffffffffffffffffffffffffffffffffffffffff1916827bffffffffffffffffffffffffffffffffffffffffffffffffffffffff1916149050919050565b600073ffffffffffffffffffffffffffffffffffffffff168473ffffffffffffffffffffffffffffffffffffffff1603611e9a5760006040517fe602df05000000000000000000000000000000000000000000000000000000008152600401611e91919061385f565b60405180910390fd5b600073ffffffffffffffffffffffffffffffffffffffff168373ffffffffffffffffffffffffffffffffffffffff1603611f0c5760006040517f94280d62000000000000000000000000000000000000000000000000000000008152600401611f03919061385f565b60405180910390fd5b81600160008673ffffffffffffffffffffffffffffffffffffffff1673ffffffffffffffffffffffffffffffffffffffff16815260200190815260200160002060008573ffffffffffffffffffffffffffffffffffffffff1673ffffffffffffffffffffffffffffffffffffffff168152602001908152602001600020819055508015611ff9578273ffffffffffffffffffffffffffffffffffffffff168473ffffffffffffffffffffffffffffffffffffffff167f8c5be1e5ebec7d5bd14f71427d1e84f3dd0314c0f7b2291e5b200ac8c7c3b92584604051611ff09190613684565b60405180910390a35b50505050565b61200a838383612b57565b505050565b6120198282610d2b565b61205c5780826040517fe2517d3f00000000000000000000000000000000000000000000000000000000815260040161205392919061401c565b60405180910390fd5b5050565b60007f8b73c3c69bb8fe3d512ecc4cf759cc79239f7b179b0ffacaa9a75d522b39400f7f00000000000000000000000000000000000000000000000000000000000000007f000000000000000000000000000000000000000000000000000000000000000046306040516020016120db959493929190614045565b60405160208183030381529060405280519060200120905090565b600065ffffffffffff8016821115612148576030826040517f6dfcc65000000000000000000000000000000000000000000000000000000000815260040161213f9291906140dd565b60405180910390fd5b819050919050565b600060018211612162578190506122e8565b6000829050600060019050700100000000000000000000000000000000821061219457608082901c9150604081901b90505b6801000000000000000082106121b357604082901c9150602081901b90505b64010000000082106121ce57602082901c9150601081901b90505b6201000082106121e757601082901c9150600881901b90505b61010082106121ff57600882901c9150600481901b90505b6010821061221657600482901c9150600281901b90505b6004821061222657600181901b90505b600181600302901c9050600181858161224257612241614106565b5b048201901c9050600181858161225b5761225a614106565b5b048201901c9050600181858161227457612273614106565b5b048201901c9050600181858161228d5761228c614106565b5b048201901c905060018185816122a6576122a5614106565b5b048201901c905060018185816122bf576122be614106565b5b048201901c90506122e18185816122d9576122d8614106565b5b048211612c08565b8103925050505b919050565b60008260005281602060002001905092915050565b60005b818310156123705760006123198484612c14565b90508465ffffffffffff1661232e87836122ed565b60000160009054906101000a900465ffffffffffff1665ffffffffffff16111561235a5780925061236a565b6001816123679190613fbf565b93505b50612305565b819050949350505050565b612383610b44565b6123b9576040517f8dfc202b00000000000000000000000000000000000000000000000000000000815260040160405180910390fd5b565b60006123c682610b6d565b9050919050565b8173ffffffffffffffffffffffffffffffffffffffff168373ffffffffffffffffffffffffffffffffffffffff16141580156124095750600081115b1561264157600073ffffffffffffffffffffffffffffffffffffffff168373ffffffffffffffffffffffffffffffffffffffff161461252757600080612498600b60008773ffffffffffffffffffffffffffffffffffffffff1673ffffffffffffffffffffffffffffffffffffffff1681526020019081526020016000206111f561249386612c3a565b612ca8565b79ffffffffffffffffffffffffffffffffffffffffffffffffffff16915079ffffffffffffffffffffffffffffffffffffffffffffffffffff1691508473ffffffffffffffffffffffffffffffffffffffff167fdec2bacdd2f05b59de34da9b523dff8be42e5e38e818c82fdb0bae774387a724838360405161251c929190614135565b60405180910390a250505b600073ffffffffffffffffffffffffffffffffffffffff168273ffffffffffffffffffffffffffffffffffffffff1614612640576000806125b1600b60008673ffffffffffffffffffffffffffffffffffffffff1673ffffffffffffffffffffffffffffffffffffffff1681526020019081526020016000206111df6125ac86612c3a565b612ca8565b79ffffffffffffffffffffffffffffffffffffffffffffffffffff16915079ffffffffffffffffffffffffffffffffffffffffffffffffffff1691508373ffffffffffffffffffffffffffffffffffffffff167fdec2bacdd2f05b59de34da9b523dff8be42e5e38e818c82fdb0bae774387a7248383604051612635929190614135565b60405180910390a250505b5b505050565b600081600001805490509050919050565b600063ffffffff80168211156126a7576020826040517f6dfcc65000000000000000000000000000000000000000000000000000000000815260040161269e929190614199565b60405180910390fd5b819050919050565b6000600960008373ffffffffffffffffffffffffffffffffffffffff1673ffffffffffffffffffffffffffffffffffffffff168152602001908152602001600020549050919050565b612700610b44565b15612737576040517fd93c066500000000000000000000000000000000000000000000000000000000815260040160405180910390fd5b565b606060ff60001b83146127565761274f83612ce8565b90506127e3565b81805461276290613d31565b80601f016020809104026020016040519081016040528092919081815260200182805461278e90613d31565b80156127db5780601f106127b0576101008083540402835291602001916127db565b820191906000526020600020905b8154815290600101906020018083116127be57829003601f168201915b505050505090505b92915050565b60006040517f190100000000000000000000000000000000000000000000000000000000000081528360028201528260228201526042812091505092915050565b60008060007f7fffffffffffffffffffffffffffffff5d576e7357a4501ddfe92f46681b20a08460001c111561286a576000600385925092509250612914565b60006001888888886040516000815260200160405260405161288f94939291906141c2565b6020604051602081039080840390855afa1580156128b1573d6000803e3d6000fd5b505050602060405103519050600073ffffffffffffffffffffffffffffffffffffffff168173ffffffffffffffffffffffffffffffffffffffff160361290557600060016000801b93509350935050612914565b8060008060001b935093509350505b9450945094915050565b6000600381111561293257612931614207565b5b82600381111561294557612944614207565b5b0315612a7e576001600381111561295f5761295e614207565b5b82600381111561297257612971614207565b5b036129a9576040517ff645eedf00000000000000000000000000000000000000000000000000000000815260040160405180910390fd5b600260038111156129bd576129bc614207565b5b8260038111156129d0576129cf614207565b5b03612a15578060001c6040517ffce698f7000000000000000000000000000000000000000000000000000000008152600401612a0c9190613684565b60405180910390fd5b600380811115612a2857612a27614207565b5b826003811115612a3b57612a3a614207565b5b03612a7d57806040517fd78bce0c000000000000000000000000000000000000000000000000000000008152600401612a749190613764565b60405180910390fd5b5b5050565b612a8a6133f1565b826000018263ffffffff1681548110612aa657612aa5614236565b5b906000526020600020016040518060400160405290816000820160009054906101000a900465ffffffffffff1665ffffffffffff1665ffffffffffff1681526020016000820160069054906101000a900479ffffffffffffffffffffffffffffffffffffffffffffffffffff1679ffffffffffffffffffffffffffffffffffffffffffffffffffff1679ffffffffffffffffffffffffffffffffffffffffffffffffffff1681525050905092915050565b612b62838383612d5c565b600073ffffffffffffffffffffffffffffffffffffffff168373ffffffffffffffffffffffffffffffffffffffff1603612bf8576000612ba0610875565b90506000612bac612d74565b905080821115612bf55781816040517f1cb15d26000000000000000000000000000000000000000000000000000000008152600401612bec929190614135565b60405180910390fd5b50505b612c03838383612d98565b505050565b60008115159050919050565b60006002828418612c259190614265565b828416612c329190613fbf565b905092915050565b600079ffffffffffffffffffffffffffffffffffffffffffffffffffff8016821115612ca05760d0826040517f6dfcc650000000000000000000000000000000000000000000000000000000008152600401612c979291906142d1565b60405180910390fd5b819050919050565b600080612cdc612cb6610d96565b612ccc612cc288611bfc565b868863ffffffff16565b87612e529092919063ffffffff16565b91509150935093915050565b60606000612cf583612e6f565b90506000602067ffffffffffffffff811115612d1457612d13613d62565b5b6040519080825280601f01601f191660200182016040528015612d465781602001600182028036833780820191505090505b5090508181528360208201528092505050919050565b612d646126f8565b612d6f838383612ebf565b505050565b600079ffffffffffffffffffffffffffffffffffffffffffffffffffff8016905090565b600073ffffffffffffffffffffffffffffffffffffffff168373ffffffffffffffffffffffffffffffffffffffff1603612de557612de2600c6111df612ddd84612c3a565b612ca8565b50505b600073ffffffffffffffffffffffffffffffffffffffff168273ffffffffffffffffffffffffffffffffffffffff1603612e3257612e2f600c6111f5612e2a84612c3a565b612ca8565b50505b612e4d612e3e84610ac1565b612e4784610ac1565b836123cd565b505050565b600080612e638560000185856130e4565b91509150935093915050565b60008060ff8360001c169050601f811115612eb6576040517fb3512b0c00000000000000000000000000000000000000000000000000000000815260040160405180910390fd5b80915050919050565b600073ffffffffffffffffffffffffffffffffffffffff168373ffffffffffffffffffffffffffffffffffffffff1603612f11578060026000828254612f059190613fbf565b92505081905550612fe4565b60008060008573ffffffffffffffffffffffffffffffffffffffff1673ffffffffffffffffffffffffffffffffffffffff16815260200190815260200160002054905081811015612f9d578381836040517fe450d38c000000000000000000000000000000000000000000000000000000008152600401612f9493929190613f2b565b60405180910390fd5b8181036000808673ffffffffffffffffffffffffffffffffffffffff1673ffffffffffffffffffffffffffffffffffffffff16815260200190815260200160002081905550505b600073ffffffffffffffffffffffffffffffffffffffff168273ffffffffffffffffffffffffffffffffffffffff160361302d578060026000828254039250508190555061307a565b806000808473ffffffffffffffffffffffffffffffffffffffff1673ffffffffffffffffffffffffffffffffffffffff168152602001908152602001600020600082825401925050819055505b8173ffffffffffffffffffffffffffffffffffffffff168373ffffffffffffffffffffffffffffffffffffffff167fddf252ad1be2c89b69c2b068fc378daa952ba7f163c4a11628f55a4df523b3ef836040516130d79190613684565b60405180910390a3505050565b60008060008580549050905060008111156133015760006131118760018461310c9190613f8b565b6122ed565b905060008160000160009054906101000a900465ffffffffffff16905060008260000160069054906101000a900479ffffffffffffffffffffffffffffffffffffffffffffffffffff1690508765ffffffffffff168265ffffffffffff1611156131a7576040517f2520601d00000000000000000000000000000000000000000000000000000000815260040160405180910390fd5b8765ffffffffffff168265ffffffffffff160361321257868360000160066101000a81548179ffffffffffffffffffffffffffffffffffffffffffffffffffff021916908379ffffffffffffffffffffffffffffffffffffffffffffffffffff1602179055506132f2565b8860405180604001604052808a65ffffffffffff1681526020018979ffffffffffffffffffffffffffffffffffffffffffffffffffff168152509080600181540180825580915050600190039060005260206000200160009091909190915060008201518160000160006101000a81548165ffffffffffff021916908365ffffffffffff16021790555060208201518160000160066101000a81548179ffffffffffffffffffffffffffffffffffffffffffffffffffff021916908379ffffffffffffffffffffffffffffffffffffffffffffffffffff16021790555050505b808795509550505050506133e9565b8560405180604001604052808765ffffffffffff1681526020018679ffffffffffffffffffffffffffffffffffffffffffffffffffff168152509080600181540180825580915050600190039060005260206000200160009091909190915060008201518160000160006101000a81548165ffffffffffff021916908365ffffffffffff16021790555060208201518160000160066101000a81548179ffffffffffffffffffffffffffffffffffffffffffffffffffff021916908379ffffffffffffffffffffffffffffffffffffffffffffffffffff160217905550505060008492509250505b935093915050565b6040518060400160405280600065ffffffffffff168152602001600079ffffffffffffffffffffffffffffffffffffffffffffffffffff1681525090565b600080fd5b60007fffffffff0000000000000000000000000000000000000000000000000000000082169050919050565b61346981613434565b811461347457600080fd5b50565b60008135905061348681613460565b92915050565b6000602082840312156134a2576134a161342f565b5b60006134b084828501613477565b91505092915050565b60008115159050919050565b6134ce816134b9565b82525050565b60006020820190506134e960008301846134c5565b92915050565b600081519050919050565b600082825260208201905092915050565b60005b8381101561352957808201518184015260208101905061350e565b60008484015250505050565b6000601f19601f8301169050919050565b6000613551826134ef565b61355b81856134fa565b935061356b81856020860161350b565b61357481613535565b840191505092915050565b600060208201905081810360008301526135998184613546565b905092915050565b600073ffffffffffffffffffffffffffffffffffffffff82169050919050565b60006135cc826135a1565b9050919050565b6135dc816135c1565b81146135e757600080fd5b50565b6000813590506135f9816135d3565b92915050565b6000819050919050565b613612816135ff565b811461361d57600080fd5b50565b60008135905061362f81613609565b92915050565b6000806040838503121561364c5761364b61342f565b5b600061365a858286016135ea565b925050602061366b85828601613620565b9150509250929050565b61367e816135ff565b82525050565b60006020820190506136996000830184613675565b92915050565b6000806000606084860312156136b8576136b761342f565b5b60006136c6868287016135ea565b93505060206136d7868287016135ea565b92505060406136e886828701613620565b9150509250925092565b6000819050919050565b613705816136f2565b811461371057600080fd5b50565b600081359050613722816136fc565b92915050565b60006020828403121561373e5761373d61342f565b5b600061374c84828501613713565b91505092915050565b61375e816136f2565b82525050565b60006020820190506137796000830184613755565b92915050565b600080604083850312156137965761379561342f565b5b60006137a485828601613713565b92505060206137b5858286016135ea565b9150509250929050565b600060ff82169050919050565b6137d5816137bf565b82525050565b60006020820190506137f060008301846137cc565b92915050565b60006020828403121561380c5761380b61342f565b5b600061381a84828501613620565b91505092915050565b6000602082840312156138395761383861342f565b5b6000613847848285016135ea565b91505092915050565b613859816135c1565b82525050565b60006020820190506138746000830184613850565b92915050565b600063ffffffff82169050919050565b6138938161387a565b82525050565b60006020820190506138ae600083018461388a565b92915050565b60007fff0000000000000000000000000000000000000000000000000000000000000082169050919050565b6138e9816138b4565b82525050565b600081519050919050565b600082825260208201905092915050565b6000819050602082019050919050565b613924816135ff565b82525050565b6000613936838361391b565b60208301905092915050565b6000602082019050919050565b600061395a826138ef565b61396481856138fa565b935061396f8361390b565b8060005b838110156139a0578151613987888261392a565b975061399283613942565b925050600181019050613973565b5085935050505092915050565b600060e0820190506139c2600083018a6138e0565b81810360208301526139d48189613546565b905081810360408301526139e88188613546565b90506139f76060830187613675565b613a046080830186613850565b613a1160a0830185613755565b81810360c0830152613a23818461394f565b905098975050505050505050565b600065ffffffffffff82169050919050565b613a4c81613a31565b82525050565b6000602082019050613a676000830184613a43565b92915050565b613a76816137bf565b8114613a8157600080fd5b50565b600081359050613a9381613a6d565b92915050565b60008060008060008060c08789031215613ab657613ab561342f565b5b6000613ac489828a016135ea565b9650506020613ad589828a01613620565b9550506040613ae689828a01613620565b9450506060613af789828a01613a84565b9350506080613b0889828a01613713565b92505060a0613b1989828a01613713565b9150509295509295509295565b600080600080600080600060e0888a031215613b4557613b4461342f565b5b6000613b538a828b016135ea565b9750506020613b648a828b016135ea565b9650506040613b758a828b01613620565b9550506060613b868a828b01613620565b9450506080613b978a828b01613a84565b93505060a0613ba88a828b01613713565b92505060c0613bb98a828b01613713565b91505092959891949750929550565b60008060408385031215613bdf57613bde61342f565b5b6000613bed858286016135ea565b9250506020613bfe858286016135ea565b9150509250929050565b613c118161387a565b8114613c1c57600080fd5b50565b600081359050613c2e81613c08565b92915050565b60008060408385031215613c4b57613c4a61342f565b5b6000613c59858286016135ea565b9250506020613c6a85828601613c1f565b9150509250929050565b613c7d81613a31565b82525050565b600079ffffffffffffffffffffffffffffffffffffffffffffffffffff82169050919050565b613cb281613c83565b82525050565b604082016000820151613cce6000850182613c74565b506020820151613ce16020850182613ca9565b50505050565b6000604082019050613cfc6000830184613cb8565b92915050565b7f4e487b7100000000000000000000000000000000000000000000000000000000600052602260045260246000fd5b60006002820490506001821680613d4957607f821691505b602082108103613d5c57613d5b613d02565b5b50919050565b7f4e487b7100000000000000000000000000000000000000000000000000000000600052604160045260246000fd5b6000608082019050613da66000830187613755565b613db36020830186613850565b613dc06040830185613675565b613dcd6060830184613675565b95945050505050565b600060c082019050613deb6000830189613755565b613df86020830188613850565b613e056040830187613850565b613e126060830186613675565b613e1f6080830185613675565b613e2c60a0830184613675565b979650505050505050565b6000604082019050613e4c6000830185613850565b613e596020830184613850565b9392505050565b7f4e487b7100000000000000000000000000000000000000000000000000000000600052601160045260246000fd5b6000613e9a82613c83565b9150613ea583613c83565b9250828201905079ffffffffffffffffffffffffffffffffffffffffffffffffffff811115613ed757613ed6613e60565b5b92915050565b6000613ee882613c83565b9150613ef383613c83565b9250828203905079ffffffffffffffffffffffffffffffffffffffffffffffffffff811115613f2557613f24613e60565b5b92915050565b6000606082019050613f406000830186613850565b613f4d6020830185613675565b613f5a6040830184613675565b949350505050565b6000604082019050613f776000830185613675565b613f846020830184613a43565b9392505050565b6000613f96826135ff565b9150613fa1836135ff565b9250828203905081811115613fb957613fb8613e60565b5b92915050565b6000613fca826135ff565b9150613fd5836135ff565b9250828201905080821115613fed57613fec613e60565b5b92915050565b60006040820190506140086000830185613850565b6140156020830184613675565b9392505050565b60006040820190506140316000830185613850565b61403e6020830184613755565b9392505050565b600060a08201905061405a6000830188613755565b6140676020830187613755565b6140746040830186613755565b6140816060830185613675565b61408e6080830184613850565b9695505050505050565b6000819050919050565b6000819050919050565b60006140c76140c26140bd84614098565b6140a2565b6137bf565b9050919050565b6140d7816140ac565b82525050565b60006040820190506140f260008301856140ce565b6140ff6020830184613675565b9392505050565b7f4e487b7100000000000000000000000000000000000000000000000000000000600052601260045260246000fd5b600060408201905061414a6000830185613675565b6141576020830184613675565b9392505050565b6000819050919050565b600061418361417e6141798461415e565b6140a2565b6137bf565b9050919050565b61419381614168565b82525050565b60006040820190506141ae600083018561418a565b6141bb6020830184613675565b9392505050565b60006080820190506141d76000830187613755565b6141e460208301866137cc565b6141f16040830185613755565b6141fe6060830184613755565b95945050505050565b7f4e487b7100000000000000000000000000000000000000000000000000000000600052602160045260246000fd5b7f4e487b7100000000000000000000000000000000000000000000000000000000600052603260045260246000fd5b6000614270826135ff565b915061427b836135ff565b92508261428b5761428a614106565b5b828204905092915050565b6000819050919050565b60006142bb6142b66142b184614296565b6140a2565b6137bf565b9050919050565b6142cb816142a0565b82525050565b60006040820190506142e660008301856142c2565b6142f36020830184613675565b939250505056fea2646970667358221220ff0ae332f7b2d2faf119f5783fd7518dfa2ce96cbaba1d96129c8a8b22cf763e64736f6c63430008180033","linkReferences":{}},"methodIdentifiers":{"ADMIN_ROLE()":"75b238fc","CLOCK_MODE()":"4bf5d7e9","DEFAULT_ADMIN_ROLE()":"a217fddf","DOMAIN_SEPARATOR()":"3644e515","MINTER_ROLE()":"d5391393","PAUSER_ROLE()":"e63ab1e9","allowance(address,address)":"dd62ed3e","approve(address,uint256)":"095ea7b3","balanceOf(address)":"70a08231","burn(uint256)":"42966c68","burnFrom(address,uint256)":"79cc6790","checkpoints(address,uint32)":"f1127ed8","clock()":"91ddadf4","decimals()":"313ce567","delegate(address)":"5c19a95c","delegateBySig(address,uint256,uint256,uint8,bytes32,bytes32)":"c3cda520","delegates(address)":"587cde1e","eip712Domain()":"84b0196e","getPastTotalSupply(uint256)":"8e539e8c","getPastVotes(address,uint256)":"3a46b1a8","getRoleAdmin(bytes32)":"248a9ca3","getVotes(address)":"9ab24eb0","grantRole(bytes32,address)":"2f2ff15d","hasRole(bytes32,address)":"91d14854","mint(address,uint256)":"40c10f19","name()":"06fdde03","nonces(address)":"7ecebe00","numCheckpoints(address)":"6fcfff45","pause()":"8456cb59","paused()":"5c975abb","permit(address,address,uint256,uint256,uint8,bytes32,bytes32)":"d505accf","renounceRole(bytes32,address)":"36568abe","revokeRole(bytes32,address)":"d547741f","supportsInterface(bytes4)":"01ffc9a7","symbol()":"95d89b41","totalSupply()":"18160ddd","transfer(address,uint256)":"a9059cbb","transferFrom(address,address,uint256)":"23b872dd","unpause()":"3f4ba83a"},"id":71}