{"abi":[{"type":"constructor","inputs":[{"name":"initialOwner","type":"address","internalType":"address"}],"stateMutability":"nonpayable"},{"type":"function","name":"balanceOf","inputs":[{"name":"account","type":"address","internalType":"address"},{"name":"id","type":"uint256","internalType":"uint256"}],"outputs":[{"name":"","type":"uint256","internalType":"uint256"}],"stateMutability":"view"},{"type":"function","name":"balanceOfBatch","inputs":[{"name":"accounts","type":"address[]","internalType":"address[]"},{"name":"ids","type":"uint256[]","internalType":"uint256[]"}],"outputs":[{"name":"","type":"uint256[]","internalType":"uint256[]"}],"stateMutability":"view"},{"type":"function","name":"burn","inputs":[{"name":"account","type":"address","internalType":"address"},{"name":"id","type":"uint256","internalType":"uint256"},{"name":"value","type":"uint256","internalType":"uint256"}],"outputs":[],"stateMutability":"nonpayable"},{"type":"function","name":"burnBatch","inputs":[{"name":"account","type":"address","internalType":"address"},{"name":"ids","type":"uint256[]","internalType":"uint256[]"},{"name":"values","type":"uint256[]","internalType":"uint256[]"}],"outputs":[],"stateMutability":"nonpayable"},{"type":"function","name":"exists","inputs":[{"name":"id","type":"uint256","internalType":"uint256"}],"outputs":[{"name":"","type":"bool","internalType":"bool"}],"stateMutability":"view"},{"type":"function","name":"isApprovedForAll","inputs":[{"name":"account","type":"address","internalType":"address"},{"name":"operator","type":"address","internalType":"address"}],"outputs":[{"name":"","type":"bool","internalType":"bool"}],"stateMutability":"view"},{"type":"function","name":"isSoulbound","inputs":[{"name":"","type":"uint256","internalType":"uint256"}],"outputs":[{"name":"","type":"bool","internalType":"bool"}],"stateMutability":"view"},{"type":"function","name":"mint","inputs":[{"name":"to","type":"address","internalType":"address"},{"name":"id","type":"uint256","internalType":"uint256"},{"name":"amount","type":"uint256","internalType":"uint256"},{"name":"soulbound","type":"bool","internalType":"bool"}],"outputs":[],"stateMutability":"nonpayable"},{"type":"function","name":"mintBatch","inputs":[{"name":"to","type":"address","internalType":"address"},{"name":"ids","type":"uint256[]","internalType":"uint256[]"},{"name":"amounts","type":"uint256[]","internalType":"uint256[]"},{"name":"soulboundFlags","type":"bool[]","internalType":"bool[]"}],"outputs":[],"stateMutability":"nonpayable"},{"type":"function","name":"name","inputs":[],"outputs":[{"name":"","type":"string","internalType":"string"}],"stateMutability":"view"},{"type":"function","name":"owner","inputs":[],"outputs":[{"name":"","type":"address","internalType":"address"}],"stateMutability":"view"},{"type":"function","name":"pause","inputs":[],"outputs":[],"stateMutability":"nonpayable"},{"type":"function","name":"paused","inputs":[],"outputs":[{"name":"","type":"bool","internalType":"bool"}],"stateMutability":"view"},{"type":"function","name":"renounceOwnership","inputs":[],"outputs":[],"stateMutability":"nonpayable"},{"type":"function","name":"safeBatchTransferFrom","inputs":[{"name":"from","type":"address","internalType":"address"},{"name":"to","type":"address","internalType":"address"},{"name":"ids","type":"uint256[]","internalType":"uint256[]"},{"name":"values","type":"uint256[]","internalType":"uint256[]"},{"name":"data","type":"bytes","internalType":"bytes"}],"outputs":[],"stateMutability":"nonpayable"},{"type":"function","name":"safeTransferFrom","inputs":[{"name":"from","type":"address","internalType":"address"},{"name":"to","type":"address","internalType":"address"},{"name":"id","type":"uint256","internalType":"uint256"},{"name":"value","type":"uint256","internalType":"uint256"},{"name":"data","type":"bytes","internalType":"bytes"}],"outputs":[],"stateMutability":"nonpayable"},{"type":"function","name":"setApprovalForAll","inputs":[{"name":"operator","type":"address","internalType":"address"},{"name":"approved","type":"bool","internalType":"bool"}],"outputs":[],"stateMutability":"nonpayable"},{"type":"function","name":"setSoulboundStatus","inputs":[{"name":"id","type":"uint256","internalType":"uint256"},{"name":"soulbound","type":"bool","internalType":"bool"}],"outputs":[],"stateMutability":"nonpayable"},{"type":"function","name":"setURI","inputs":[{"name":"newuri","type":"string","internalType":"string"}],"outputs":[],"stateMutability":"nonpayable"},{"type":"function","name":"supportsInterface","inputs":[{"name":"interfaceId","type":"bytes4","internalType":"bytes4"}],"outputs":[{"name":"","type":"bool","internalType":"bool"}],"stateMutability":"view"},{"type":"function","name":"symbol","inputs":[],"outputs":[{"name":"","type":"string","internalType":"string"}],"stateMutability":"view"},{"type":"function","name":"totalSupply","inputs":[],"outputs":[{"name":"","type":"uint256","internalType":"uint256"}],"stateMutability":"view"},{"type":"function","name":"totalSupply","inputs":[{"name":"id","type":"uint256","internalType":"uint256"}],"outputs":[{"name":"","type":"uint256","internalType":"uint256"}],"stateMutability":"view"},{"type":"function","name":"transferOwnership","inputs":[{"name":"newOwner","type":"address","internalType":"address"}],"outputs":[],"stateMutability":"nonpayable"},{"type":"function","name":"unpause","inputs":[],"outputs":[],"stateMutability":"nonpayable"},{"type":"function","name":"uri","inputs":[{"name":"id","type":"uint256","internalType":"uint256"}],"outputs":[{"name":"","type":"string","internalType":"string"}],"stateMutability":"view"},{"type":"event","name":"AchievementMinted","inputs":[{"name":"to","type":"address","indexed":true,"internalType":"address"},{"name":"id","type":"uint256","indexed":true,"internalType":"uint256"},{"name":"amount","type":"uint256","indexed":false,"internalType":"uint256"}],"anonymous":false},{"type":"event","name":"ApprovalForAll","inputs":[{"name":"account","type":"address","indexed":true,"internalType":"address"},{"name":"operator","type":"address","indexed":true,"internalType":"address"},{"name":"approved","type":"bool","indexed":false,"internalType":"bool"}],"anonymous":false},{"type":"event","name":"OwnershipTransferred","inputs":[{"name":"previousOwner","type":"address","indexed":true,"internalType":"address"},{"name":"newOwner","type":"address","indexed":true,"internalType":"address"}],"anonymous":false},{"type":"event","name":"Paused","inputs":[{"name":"account","type":"address","indexed":false,"internalType":"address"}],"anonymous":false},{"type":"event","name":"SoulboundStatusSet","inputs":[{"name":"id","type":"uint256","indexed":true,"internalType":"uint256"},{"name":"soulbound","type":"bool","indexed":false,"internalType":"bool"}],"anonymous":false},{"type":"event","name":"TransferBatch","inputs":[{"name":"operator","type":"address","indexed":true,"internalType":"address"},{"name":"from","type":"address","indexed":true,"internalType":"address"},{"name":"to","type":"address","indexed":true,"internalType":"address"},{"name":"ids","type":"uint256[]","indexed":false,"internalType":"uint256[]"},{"name":"values","type":"uint256[]","indexed":false,"internalType":"uint256[]"}],"anonymous":false},{"type":"event","name":"TransferSingle","inputs":[{"name":"operator","type":"address","indexed":true,"internalType":"address"},{"name":"from","type":"address","indexed":true,"internalType":"address"},{"name":"to","type":"address","indexed":true,"internalType":"address"},{"name":"id","type":"uint256","indexed":false,"internalType":"uint256"},{"name":"value","type":"uint256","indexed":false,"internalType":"uint256"}],"anonymous":false},{"type":"event","name":"URI","inputs":[{"name":"value","type":"string","indexed":false,"internalType":"string"},{"name":"id","type":"uint256","indexed":true,"internalType":"uint256"}],"anonymous":false},{"type":"event","name":"Unpaused","inputs":[{"name":"account","type":"address","indexed":false,"internalType":"address"}],"anonymous":false},{"type":"error","name":"ERC1155InsufficientBalance","inputs":[{"name":"sender","type":"address","internalType":"address"},{"name":"balance","type":"uint256","internalType":"uint256"},{"name":"needed","type":"uint256","internalType":"uint256"},{"name":"tokenId","type":"uint256","internalType":"uint256"}]},{"type":"error","name":"ERC1155InvalidApprover","inputs":[{"name":"approver","type":"address","internalType":"address"}]},{"type":"error","name":"ERC1155InvalidArrayLength","inputs":[{"name":"idsLength","type":"uint256","internalType":"uint256"},{"name":"valuesLength","type":"uint256","internalType":"uint256"}]},{"type":"error","name":"ERC1155InvalidOperator","inputs":[{"name":"operator","type":"address","internalType":"address"}]},{"type":"error","name":"ERC1155InvalidReceiver","inputs":[{"name":"receiver","type":"address","internalType":"address"}]},{"type":"error","name":"ERC1155InvalidSender","inputs":[{"name":"sender","type":"address","internalType":"address"}]},{"type":"error","name":"ERC1155MissingApprovalForAll","inputs":[{"name":"operator","type":"address","internalType":"address"},{"name":"owner","type":"address","internalType":"address"}]},{"type":"error","name":"EnforcedPause","inputs":[]},{"type":"error","name":"ExpectedPause","inputs":[]},{"type":"error","name":"OwnableInvalidOwner","inputs":[{"name":"owner","type":"address","internalType":"address"}]},{"type":"error","name":"OwnableUnauthorizedAccount","inputs":[{"name":"account","type":"address","internalType":"address"}]},{"type":"error","name":"SoulboundTransferNotAllowed","inputs":[]}],"bytecode":{"object":"0x60806040526040518060400160405280601481526020017f556e694d61746520416368696576656d656e7473000000000000000000000000815250600690816200004a9190620004d5565b506040518060400160405280600381526020017f554d41000000000000000000000000000000000000000000000000000000000081525060079081620000919190620004d5565b503480156200009f57600080fd5b5060405162003e8238038062003e828339818101604052810190620000c5919062000626565b806040518060600160405280602a815260200162003e58602a9139620000f1816200018060201b60201c565b50600073ffffffffffffffffffffffffffffffffffffffff168173ffffffffffffffffffffffffffffffffffffffff1603620001675760006040517f1e4fbdf70000000000000000000000000000000000000000000000000000000081526004016200015e919062000669565b60405180910390fd5b62000178816200019560201b60201c565b505062000686565b8060029081620001919190620004d5565b5050565b6000600360009054906101000a900473ffffffffffffffffffffffffffffffffffffffff16905081600360006101000a81548173ffffffffffffffffffffffffffffffffffffffff021916908373ffffffffffffffffffffffffffffffffffffffff1602179055508173ffffffffffffffffffffffffffffffffffffffff168173ffffffffffffffffffffffffffffffffffffffff167f8be0079c531659141344cd1fd0a4f28419497f9722a3daafe3b4186f6b6457e060405160405180910390a35050565b600081519050919050565b7f4e487b7100000000000000000000000000000000000000000000000000000000600052604160045260246000fd5b7f4e487b7100000000000000000000000000000000000000000000000000000000600052602260045260246000fd5b60006002820490506001821680620002dd57607f821691505b602082108103620002f357620002f262000295565b5b50919050565b60008190508160005260206000209050919050565b60006020601f8301049050919050565b600082821b905092915050565b6000600883026200035d7fffffffffffffffffffffffffffffffffffffffffffffffffffffffffffffffff826200031e565b6200036986836200031e565b95508019841693508086168417925050509392505050565b6000819050919050565b6000819050919050565b6000620003b6620003b0620003aa8462000381565b6200038b565b62000381565b9050919050565b6000819050919050565b620003d28362000395565b620003ea620003e182620003bd565b8484546200032b565b825550505050565b600090565b62000401620003f2565b6200040e818484620003c7565b505050565b5b8181101562000436576200042a600082620003f7565b60018101905062000414565b5050565b601f82111562000485576200044f81620002f9565b6200045a846200030e565b810160208510156200046a578190505b6200048262000479856200030e565b83018262000413565b50505b505050565b600082821c905092915050565b6000620004aa600019846008026200048a565b1980831691505092915050565b6000620004c5838362000497565b9150826002028217905092915050565b620004e0826200025b565b67ffffffffffffffff811115620004fc57620004fb62000266565b5b620005088254620002c4565b620005158282856200043a565b600060209050601f8311600181146200054d576000841562000538578287015190505b620005448582620004b7565b865550620005b4565b601f1984166200055d86620002f9565b60005b82811015620005875784890151825560018201915060208501945060208101905062000560565b86831015620005a75784890151620005a3601f89168262000497565b8355505b6001600288020188555050505b505050505050565b600080fd5b600073ffffffffffffffffffffffffffffffffffffffff82169050919050565b6000620005ee82620005c1565b9050919050565b6200060081620005e1565b81146200060c57600080fd5b50565b6000815190506200062081620005f5565b92915050565b6000602082840312156200063f576200063e620005bc565b5b60006200064f848285016200060f565b91505092915050565b6200066381620005e1565b82525050565b600060208201905062000680600083018462000658565b92915050565b6137c280620006966000396000f3fe608060405234801561001057600080fd5b506004361061018d5760003560e01c8063715018a6116100de578063bd85b03911610097578063e985e9c511610071578063e985e9c51461045a578063f242432a1461048a578063f2fde38b146104a6578063f5298aca146104c25761018d565b8063bd85b039146103f2578063dbf110a714610422578063e46280a41461043e5761018d565b8063715018a6146103565780638456cb59146103605780638da5cb5b1461036a578063911ec4701461038857806395d89b41146103b8578063a22cb465146103d65761018d565b806321e44f331161014b5780634e1273f4116101255780634e1273f4146102bc5780634f558e79146102ec5780635c975abb1461031c5780636b20c4541461033a5761018d565b806321e44f331461027a5780632eb2c2d6146102965780633f4ba83a146102b25761018d565b8062fdd58e1461019257806301ffc9a7146101c257806302fe5305146101f257806306fdde031461020e5780630e89341c1461022c57806318160ddd1461025c575b600080fd5b6101ac60048036038101906101a79190612517565b6104de565b6040516101b99190612566565b60405180910390f35b6101dc60048036038101906101d791906125d9565b610538565b6040516101e99190612621565b60405180910390f35b61020c60048036038101906102079190612782565b61061a565b005b61021661062e565b604051610223919061284a565b60405180910390f35b6102466004803603810190610241919061286c565b6106bc565b604051610253919061284a565b60405180910390f35b6102646106ce565b6040516102719190612566565b60405180910390f35b610294600480360381019061028f91906128c5565b6106d8565b005b6102b060048036038101906102ab9190612a6e565b610747565b005b6102ba6107ef565b005b6102d660048036038101906102d19190612c00565b610801565b6040516102e39190612d36565b60405180910390f35b6103066004803603810190610301919061286c565b61090a565b6040516103139190612621565b60405180910390f35b61032461091e565b6040516103319190612621565b60405180910390f35b610354600480360381019061034f9190612d58565b610935565b005b61035e6109e1565b005b6103686109f5565b005b610372610a07565b60405161037f9190612df2565b60405180910390f35b6103a2600480360381019061039d919061286c565b610a31565b6040516103af9190612621565b60405180910390f35b6103c0610a51565b6040516103cd919061284a565b60405180910390f35b6103f060048036038101906103eb9190612e0d565b610adf565b005b61040c6004803603810190610407919061286c565b610af5565b6040516104199190612566565b60405180910390f35b61043c60048036038101906104379190612e4d565b610b12565b005b61045860048036038101906104539190612f77565b610bf6565b005b610474600480360381019061046f9190613032565b610dba565b6040516104819190612621565b60405180910390f35b6104a4600480360381019061049f9190613072565b610e4e565b005b6104c060048036038101906104bb9190613109565b610ef6565b005b6104dc60048036038101906104d79190613136565b610f7c565b005b600080600083815260200190815260200160002060008473ffffffffffffffffffffffffffffffffffffffff1673ffffffffffffffffffffffffffffffffffffffff16815260200190815260200160002054905092915050565b60007fd9b67a26000000000000000000000000000000000000000000000000000000007bffffffffffffffffffffffffffffffffffffffffffffffffffffffff1916827bffffffffffffffffffffffffffffffffffffffffffffffffffffffff1916148061060357507f0e89341c000000000000000000000000000000000000000000000000000000007bffffffffffffffffffffffffffffffffffffffffffffffffffffffff1916827bffffffffffffffffffffffffffffffffffffffffffffffffffffffff1916145b80610613575061061282611028565b5b9050919050565b610622611092565b61062b81611119565b50565b6006805461063b906131b8565b80601f0160208091040260200160405190810160405280929190818152602001828054610667906131b8565b80156106b45780601f10610689576101008083540402835291602001916106b4565b820191906000526020600020905b81548152906001019060200180831161069757829003601f168201915b505050505081565b60606106c78261112c565b9050919050565b6000600554905090565b6106e0611092565b806008600084815260200190815260200160002060006101000a81548160ff021916908315150217905550817fc0c9609e8b2ddd6a2bd13fa65cf4fa35f10ad14f8694c462c87b1d0ac4e026788260405161073b9190612621565b60405180910390a25050565b60006107516111c0565b90508073ffffffffffffffffffffffffffffffffffffffff168673ffffffffffffffffffffffffffffffffffffffff161415801561079657506107948682610dba565b155b156107da5780866040517fe237d9220000000000000000000000000000000000000000000000000000000081526004016107d19291906131e9565b60405180910390fd5b6107e786868686866111c8565b505050505050565b6107f7611092565b6107ff6112c0565b565b6060815183511461084d57815183516040517f5b059991000000000000000000000000000000000000000000000000000000008152600401610844929190613212565b60405180910390fd5b6000835167ffffffffffffffff81111561086a57610869612657565b5b6040519080825280602002602001820160405280156108985781602001602082028036833780820191505090505b50905060005b84518110156108ff576108d56108bd828761132390919063ffffffff16565b6108d0838761133790919063ffffffff16565b6104de565b8282815181106108e8576108e761323b565b5b60200260200101818152505080600101905061089e565b508091505092915050565b60008061091683610af5565b119050919050565b6000600360149054906101000a900460ff16905090565b61093d6111c0565b73ffffffffffffffffffffffffffffffffffffffff168373ffffffffffffffffffffffffffffffffffffffff161415801561098657506109848361097f6111c0565b610dba565b155b156109d1576109936111c0565b836040517fe237d9220000000000000000000000000000000000000000000000000000000081526004016109c89291906131e9565b60405180910390fd5b6109dc83838361134b565b505050565b6109e9611092565b6109f360006113df565b565b6109fd611092565b610a056114a5565b565b6000600360009054906101000a900473ffffffffffffffffffffffffffffffffffffffff16905090565b60086020528060005260406000206000915054906101000a900460ff1681565b60078054610a5e906131b8565b80601f0160208091040260200160405190810160405280929190818152602001828054610a8a906131b8565b8015610ad75780601f10610aac57610100808354040283529160200191610ad7565b820191906000526020600020905b815481529060010190602001808311610aba57829003601f168201915b505050505081565b610af1610aea6111c0565b8383611508565b5050565b600060046000838152602001908152602001600020549050919050565b610b1a611092565b8015610b865760016008600085815260200190815260200160002060006101000a81548160ff021916908315150217905550827fc0c9609e8b2ddd6a2bd13fa65cf4fa35f10ad14f8694c462c87b1d0ac4e026786001604051610b7d9190612621565b60405180910390a25b610ba184848460405180602001604052806000815250611678565b828473ffffffffffffffffffffffffffffffffffffffff167f226d2a645d7edd4fc8d019b3eae722231277e0665965dba0c711be16ef35ba9e84604051610be89190612566565b60405180910390a350505050565b610bfe611092565b8051835114610c42576040517f08c379a0000000000000000000000000000000000000000000000000000000008152600401610c39906132b6565b60405180910390fd5b60005b8351811015610d9857818181518110610c6157610c6061323b565b5b602002602001015115610d0857600160086000868481518110610c8757610c8661323b565b5b6020026020010151815260200190815260200160002060006101000a81548160ff021916908315150217905550838181518110610cc757610cc661323b565b5b60200260200101517fc0c9609e8b2ddd6a2bd13fa65cf4fa35f10ad14f8694c462c87b1d0ac4e026786001604051610cff9190612621565b60405180910390a25b838181518110610d1b57610d1a61323b565b5b60200260200101518573ffffffffffffffffffffffffffffffffffffffff167f226d2a645d7edd4fc8d019b3eae722231277e0665965dba0c711be16ef35ba9e858481518110610d6e57610d6d61323b565b5b6020026020010151604051610d839190612566565b60405180910390a38080600101915050610c45565b50610db484848460405180602001604052806000815250611711565b50505050565b6000600160008473ffffffffffffffffffffffffffffffffffffffff1673ffffffffffffffffffffffffffffffffffffffff16815260200190815260200160002060008373ffffffffffffffffffffffffffffffffffffffff1673ffffffffffffffffffffffffffffffffffffffff16815260200190815260200160002060009054906101000a900460ff16905092915050565b6000610e586111c0565b90508073ffffffffffffffffffffffffffffffffffffffff168673ffffffffffffffffffffffffffffffffffffffff1614158015610e9d5750610e9b8682610dba565b155b15610ee15780866040517fe237d922000000000000000000000000000000000000000000000000000000008152600401610ed89291906131e9565b60405180910390fd5b610eee8686868686611797565b505050505050565b610efe611092565b600073ffffffffffffffffffffffffffffffffffffffff168173ffffffffffffffffffffffffffffffffffffffff1603610f705760006040517f1e4fbdf7000000000000000000000000000000000000000000000000000000008152600401610f679190612df2565b60405180910390fd5b610f79816113df565b50565b610f846111c0565b73ffffffffffffffffffffffffffffffffffffffff168373ffffffffffffffffffffffffffffffffffffffff1614158015610fcd5750610fcb83610fc66111c0565b610dba565b155b1561101857610fda6111c0565b836040517fe237d92200000000000000000000000000000000000000000000000000000000815260040161100f9291906131e9565b60405180910390fd5b6110238383836118a2565b505050565b60007f01ffc9a7000000000000000000000000000000000000000000000000000000007bffffffffffffffffffffffffffffffffffffffffffffffffffffffff1916827bffffffffffffffffffffffffffffffffffffffffffffffffffffffff1916149050919050565b61109a6111c0565b73ffffffffffffffffffffffffffffffffffffffff166110b8610a07565b73ffffffffffffffffffffffffffffffffffffffff1614611117576110db6111c0565b6040517f118cdaa700000000000000000000000000000000000000000000000000000000815260040161110e9190612df2565b60405180910390fd5b565b80600290816111289190613482565b5050565b60606002805461113b906131b8565b80601f0160208091040260200160405190810160405280929190818152602001828054611167906131b8565b80156111b45780601f10611189576101008083540402835291602001916111b4565b820191906000526020600020905b81548152906001019060200180831161119757829003601f168201915b50505050509050919050565b600033905090565b600073ffffffffffffffffffffffffffffffffffffffff168473ffffffffffffffffffffffffffffffffffffffff160361123a5760006040517f57f447ce0000000000000000000000000000000000000000000000000000000081526004016112319190612df2565b60405180910390fd5b600073ffffffffffffffffffffffffffffffffffffffff168573ffffffffffffffffffffffffffffffffffffffff16036112ac5760006040517f01a835140000000000000000000000000000000000000000000000000000000081526004016112a39190612df2565b60405180910390fd5b6112b98585858585611949565b5050505050565b6112c86119fb565b6000600360146101000a81548160ff0219169083151502179055507f5db9ee0a495bf2e6ff9c91a7834c1ba4fdd244a5e8aa4e537bd38aeae4b073aa61130c6111c0565b6040516113199190612df2565b60405180910390a1565b600060208202602084010151905092915050565b600060208202602084010151905092915050565b600073ffffffffffffffffffffffffffffffffffffffff168373ffffffffffffffffffffffffffffffffffffffff16036113bd5760006040517f01a835140000000000000000000000000000000000000000000000000000000081526004016113b49190612df2565b60405180910390fd5b6113da836000848460405180602001604052806000815250611949565b505050565b6000600360009054906101000a900473ffffffffffffffffffffffffffffffffffffffff16905081600360006101000a81548173ffffffffffffffffffffffffffffffffffffffff021916908373ffffffffffffffffffffffffffffffffffffffff1602179055508173ffffffffffffffffffffffffffffffffffffffff168173ffffffffffffffffffffffffffffffffffffffff167f8be0079c531659141344cd1fd0a4f28419497f9722a3daafe3b4186f6b6457e060405160405180910390a35050565b6114ad611a3b565b6001600360146101000a81548160ff0219169083151502179055507f62e78cea01bee320cd4e420270b5ea74000d11b0c9f74754ebdbfc544b05a2586114f16111c0565b6040516114fe9190612df2565b60405180910390a1565b600073ffffffffffffffffffffffffffffffffffffffff168273ffffffffffffffffffffffffffffffffffffffff160361157a5760006040517fced3e1000000000000000000000000000000000000000000000000000000000081526004016115719190612df2565b60405180910390fd5b80600160008573ffffffffffffffffffffffffffffffffffffffff1673ffffffffffffffffffffffffffffffffffffffff16815260200190815260200160002060008473ffffffffffffffffffffffffffffffffffffffff1673ffffffffffffffffffffffffffffffffffffffff16815260200190815260200160002060006101000a81548160ff0219169083151502179055508173ffffffffffffffffffffffffffffffffffffffff168373ffffffffffffffffffffffffffffffffffffffff167f17307eab39ab6107e8899845ad3d59bd9653f200f220920489ca2b5937696c318360405161166b9190612621565b60405180910390a3505050565b600073ffffffffffffffffffffffffffffffffffffffff168473ffffffffffffffffffffffffffffffffffffffff16036116ea5760006040517f57f447ce0000000000000000000000000000000000000000000000000000000081526004016116e19190612df2565b60405180910390fd5b6000806116f78585611a7c565b91509150611709600087848487611949565b505050505050565b600073ffffffffffffffffffffffffffffffffffffffff168473ffffffffffffffffffffffffffffffffffffffff16036117835760006040517f57f447ce00000000000000000000000000000000000000000000000000000000815260040161177a9190612df2565b60405180910390fd5b611791600085858585611949565b50505050565b600073ffffffffffffffffffffffffffffffffffffffff168473ffffffffffffffffffffffffffffffffffffffff16036118095760006040517f57f447ce0000000000000000000000000000000000000000000000000000000081526004016118009190612df2565b60405180910390fd5b600073ffffffffffffffffffffffffffffffffffffffff168573ffffffffffffffffffffffffffffffffffffffff160361187b5760006040517f01a835140000000000000000000000000000000000000000000000000000000081526004016118729190612df2565b60405180910390fd5b6000806118888585611a7c565b915091506118998787848487611949565b50505050505050565b600073ffffffffffffffffffffffffffffffffffffffff168373ffffffffffffffffffffffffffffffffffffffff16036119145760006040517f01a8351400000000000000000000000000000000000000000000000000000000815260040161190b9190612df2565b60405180910390fd5b6000806119218484611a7c565b91509150611942856000848460405180602001604052806000815250611949565b5050505050565b61195585858585611aac565b600073ffffffffffffffffffffffffffffffffffffffff168473ffffffffffffffffffffffffffffffffffffffff16146119f45760006119936111c0565b905060018451036119e35760006119b460008661133790919063ffffffff16565b905060006119cc60008661133790919063ffffffff16565b90506119dc838989858589611bba565b50506119f2565b6119f1818787878787611d6e565b5b505b5050505050565b611a0361091e565b611a39576040517f8dfc202b00000000000000000000000000000000000000000000000000000000815260040160405180910390fd5b565b611a4361091e565b15611a7a576040517fd93c066500000000000000000000000000000000000000000000000000000000815260040160405180910390fd5b565b60608060405191506001825283602083015260408201905060018152826020820152604081016040529250929050565b600073ffffffffffffffffffffffffffffffffffffffff168473ffffffffffffffffffffffffffffffffffffffff1614158015611b165750600073ffffffffffffffffffffffffffffffffffffffff168373ffffffffffffffffffffffffffffffffffffffff1614155b15611ba85760005b8251811015611ba65760086000848381518110611b3e57611b3d61323b565b5b6020026020010151815260200190815260200160002060009054906101000a900460ff1615611b99576040517f1a3022a600000000000000000000000000000000000000000000000000000000815260040160405180910390fd5b8080600101915050611b1e565b505b611bb484848484611f22565b50505050565b60008473ffffffffffffffffffffffffffffffffffffffff163b1115611d66578373ffffffffffffffffffffffffffffffffffffffff1663f23a6e6187878686866040518663ffffffff1660e01b8152600401611c1b9594939291906135a9565b6020604051808303816000875af1925050508015611c5757506040513d601f19601f82011682018060405250810190611c549190613618565b60015b611cdb573d8060008114611c87576040519150601f19603f3d011682016040523d82523d6000602084013e611c8c565b606091505b506000815103611cd357846040517f57f447ce000000000000000000000000000000000000000000000000000000008152600401611cca9190612df2565b60405180910390fd5b805160208201fd5b63f23a6e6160e01b7bffffffffffffffffffffffffffffffffffffffffffffffffffffffff1916817bffffffffffffffffffffffffffffffffffffffffffffffffffffffff191614611d6457846040517f57f447ce000000000000000000000000000000000000000000000000000000008152600401611d5b9190612df2565b60405180910390fd5b505b505050505050565b60008473ffffffffffffffffffffffffffffffffffffffff163b1115611f1a578373ffffffffffffffffffffffffffffffffffffffff1663bc197c8187878686866040518663ffffffff1660e01b8152600401611dcf959493929190613645565b6020604051808303816000875af1925050508015611e0b57506040513d601f19601f82011682018060405250810190611e089190613618565b60015b611e8f573d8060008114611e3b576040519150601f19603f3d011682016040523d82523d6000602084013e611e40565b606091505b506000815103611e8757846040517f57f447ce000000000000000000000000000000000000000000000000000000008152600401611e7e9190612df2565b60405180910390fd5b805160208201fd5b63bc197c8160e01b7bffffffffffffffffffffffffffffffffffffffffffffffffffffffff1916817bffffffffffffffffffffffffffffffffffffffffffffffffffffffff191614611f1857846040517f57f447ce000000000000000000000000000000000000000000000000000000008152600401611f0f9190612df2565b60405180910390fd5b505b505050505050565b611f2e848484846120ad565b600073ffffffffffffffffffffffffffffffffffffffff168473ffffffffffffffffffffffffffffffffffffffff1603611ff8576000805b8351811015611fdc576000611f84828561133790919063ffffffff16565b90508060046000611f9e858961133790919063ffffffff16565b81526020019081526020016000206000828254611fbb91906136dc565b925050819055508083611fce91906136dc565b925050806001019050611f66565b508060056000828254611fef91906136dc565b92505081905550505b600073ffffffffffffffffffffffffffffffffffffffff168373ffffffffffffffffffffffffffffffffffffffff16036120a7576000805b835181101561209457600061204e828561133790919063ffffffff16565b90508060046000612068858961133790919063ffffffff16565b815260200190815260200160002060008282540392505081905550808301925050806001019050612030565b5080600560008282540392505081905550505b50505050565b6120b5611a3b565b6120c1848484846120c7565b50505050565b805182511461211157815181516040517f5b059991000000000000000000000000000000000000000000000000000000008152600401612108929190613212565b60405180910390fd5b600061211b6111c0565b905060005b835181101561232a57600061213e828661133790919063ffffffff16565b90506000612155838661133790919063ffffffff16565b9050600073ffffffffffffffffffffffffffffffffffffffff168873ffffffffffffffffffffffffffffffffffffffff161461228257600080600084815260200190815260200160002060008a73ffffffffffffffffffffffffffffffffffffffff1673ffffffffffffffffffffffffffffffffffffffff1681526020019081526020016000205490508181101561222a57888183856040517f03dee4c50000000000000000000000000000000000000000000000000000000081526004016122219493929190613710565b60405180910390fd5b81810360008085815260200190815260200160002060008b73ffffffffffffffffffffffffffffffffffffffff1673ffffffffffffffffffffffffffffffffffffffff16815260200190815260200160002081905550505b600073ffffffffffffffffffffffffffffffffffffffff168773ffffffffffffffffffffffffffffffffffffffff161461231d578060008084815260200190815260200160002060008973ffffffffffffffffffffffffffffffffffffffff1673ffffffffffffffffffffffffffffffffffffffff168152602001908152602001600020600082825461231591906136dc565b925050819055505b5050806001019050612120565b5060018351036123e957600061234a60008561133790919063ffffffff16565b9050600061236260008561133790919063ffffffff16565b90508573ffffffffffffffffffffffffffffffffffffffff168773ffffffffffffffffffffffffffffffffffffffff168473ffffffffffffffffffffffffffffffffffffffff167fc3d58168c5ae7397731d063d5bbf3d657854427343f4c083240f7aacaa2d0f6285856040516123da929190613212565b60405180910390a45050612468565b8373ffffffffffffffffffffffffffffffffffffffff168573ffffffffffffffffffffffffffffffffffffffff168273ffffffffffffffffffffffffffffffffffffffff167f4a39dc06d4c0dbc64b70af90fd698a233a518aa5d07e595d983b8c0526c8f7fb868660405161245f929190613755565b60405180910390a45b5050505050565b6000604051905090565b600080fd5b600080fd5b600073ffffffffffffffffffffffffffffffffffffffff82169050919050565b60006124ae82612483565b9050919050565b6124be816124a3565b81146124c957600080fd5b50565b6000813590506124db816124b5565b92915050565b6000819050919050565b6124f4816124e1565b81146124ff57600080fd5b50565b600081359050612511816124eb565b92915050565b6000806040838503121561252e5761252d612479565b5b600061253c858286016124cc565b925050602061254d85828601612502565b9150509250929050565b612560816124e1565b82525050565b600060208201905061257b6000830184612557565b92915050565b60007fffffffff0000000000000000000000000000000000000000000000000000000082169050919050565b6125b681612581565b81146125c157600080fd5b50565b6000813590506125d3816125ad565b92915050565b6000602082840312156125ef576125ee612479565b5b60006125fd848285016125c4565b91505092915050565b60008115159050919050565b61261b81612606565b82525050565b60006020820190506126366000830184612612565b92915050565b600080fd5b600080fd5b6000601f19601f8301169050919050565b7f4e487b7100000000000000000000000000000000000000000000000000000000600052604160045260246000fd5b61268f82612646565b810181811067ffffffffffffffff821117156126ae576126ad612657565b5b80604052505050565b60006126c161246f565b90506126cd8282612686565b919050565b600067ffffffffffffffff8211156126ed576126ec612657565b5b6126f682612646565b9050602081019050919050565b82818337600083830152505050565b6000612725612720846126d2565b6126b7565b90508281526020810184848401111561274157612740612641565b5b61274c848285612703565b509392505050565b600082601f8301126127695761276861263c565b5b8135612779848260208601612712565b91505092915050565b60006020828403121561279857612797612479565b5b600082013567ffffffffffffffff8111156127b6576127b561247e565b5b6127c284828501612754565b91505092915050565b600081519050919050565b600082825260208201905092915050565b60005b838110156128055780820151818401526020810190506127ea565b60008484015250505050565b600061281c826127cb565b61282681856127d6565b93506128368185602086016127e7565b61283f81612646565b840191505092915050565b600060208201905081810360008301526128648184612811565b905092915050565b60006020828403121561288257612881612479565b5b600061289084828501612502565b91505092915050565b6128a281612606565b81146128ad57600080fd5b50565b6000813590506128bf81612899565b92915050565b600080604083850312156128dc576128db612479565b5b60006128ea85828601612502565b92505060206128fb858286016128b0565b9150509250929050565b600067ffffffffffffffff8211156129205761291f612657565b5b602082029050602081019050919050565b600080fd5b600061294961294484612905565b6126b7565b9050808382526020820190506020840283018581111561296c5761296b612931565b5b835b8181101561299557806129818882612502565b84526020840193505060208101905061296e565b5050509392505050565b600082601f8301126129b4576129b361263c565b5b81356129c4848260208601612936565b91505092915050565b600067ffffffffffffffff8211156129e8576129e7612657565b5b6129f182612646565b9050602081019050919050565b6000612a11612a0c846129cd565b6126b7565b905082815260208101848484011115612a2d57612a2c612641565b5b612a38848285612703565b509392505050565b600082601f830112612a5557612a5461263c565b5b8135612a658482602086016129fe565b91505092915050565b600080600080600060a08688031215612a8a57612a89612479565b5b6000612a98888289016124cc565b9550506020612aa9888289016124cc565b945050604086013567ffffffffffffffff811115612aca57612ac961247e565b5b612ad68882890161299f565b935050606086013567ffffffffffffffff811115612af757612af661247e565b5b612b038882890161299f565b925050608086013567ffffffffffffffff811115612b2457612b2361247e565b5b612b3088828901612a40565b9150509295509295909350565b600067ffffffffffffffff821115612b5857612b57612657565b5b602082029050602081019050919050565b6000612b7c612b7784612b3d565b6126b7565b90508083825260208201905060208402830185811115612b9f57612b9e612931565b5b835b81811015612bc85780612bb488826124cc565b845260208401935050602081019050612ba1565b5050509392505050565b600082601f830112612be757612be661263c565b5b8135612bf7848260208601612b69565b91505092915050565b60008060408385031215612c1757612c16612479565b5b600083013567ffffffffffffffff811115612c3557612c3461247e565b5b612c4185828601612bd2565b925050602083013567ffffffffffffffff811115612c6257612c6161247e565b5b612c6e8582860161299f565b9150509250929050565b600081519050919050565b600082825260208201905092915050565b6000819050602082019050919050565b612cad816124e1565b82525050565b6000612cbf8383612ca4565b60208301905092915050565b6000602082019050919050565b6000612ce382612c78565b612ced8185612c83565b9350612cf883612c94565b8060005b83811015612d29578151612d108882612cb3565b9750612d1b83612ccb565b925050600181019050612cfc565b5085935050505092915050565b60006020820190508181036000830152612d508184612cd8565b905092915050565b600080600060608486031215612d7157612d70612479565b5b6000612d7f868287016124cc565b935050602084013567ffffffffffffffff811115612da057612d9f61247e565b5b612dac8682870161299f565b925050604084013567ffffffffffffffff811115612dcd57612dcc61247e565b5b612dd98682870161299f565b9150509250925092565b612dec816124a3565b82525050565b6000602082019050612e076000830184612de3565b92915050565b60008060408385031215612e2457612e23612479565b5b6000612e32858286016124cc565b9250506020612e43858286016128b0565b9150509250929050565b60008060008060808587031215612e6757612e66612479565b5b6000612e75878288016124cc565b9450506020612e8687828801612502565b9350506040612e9787828801612502565b9250506060612ea8878288016128b0565b91505092959194509250565b600067ffffffffffffffff821115612ecf57612ece612657565b5b602082029050602081019050919050565b6000612ef3612eee84612eb4565b6126b7565b90508083825260208201905060208402830185811115612f1657612f15612931565b5b835b81811015612f3f5780612f2b88826128b0565b845260208401935050602081019050612f18565b5050509392505050565b600082601f830112612f5e57612f5d61263c565b5b8135612f6e848260208601612ee0565b91505092915050565b60008060008060808587031215612f9157612f90612479565b5b6000612f9f878288016124cc565b945050602085013567ffffffffffffffff811115612fc057612fbf61247e565b5b612fcc8782880161299f565b935050604085013567ffffffffffffffff811115612fed57612fec61247e565b5b612ff98782880161299f565b925050606085013567ffffffffffffffff81111561301a5761301961247e565b5b61302687828801612f49565b91505092959194509250565b6000806040838503121561304957613048612479565b5b6000613057858286016124cc565b9250506020613068858286016124cc565b9150509250929050565b600080600080600060a0868803121561308e5761308d612479565b5b600061309c888289016124cc565b95505060206130ad888289016124cc565b94505060406130be88828901612502565b93505060606130cf88828901612502565b925050608086013567ffffffffffffffff8111156130f0576130ef61247e565b5b6130fc88828901612a40565b9150509295509295909350565b60006020828403121561311f5761311e612479565b5b600061312d848285016124cc565b91505092915050565b60008060006060848603121561314f5761314e612479565b5b600061315d868287016124cc565b935050602061316e86828701612502565b925050604061317f86828701612502565b9150509250925092565b7f4e487b7100000000000000000000000000000000000000000000000000000000600052602260045260246000fd5b600060028204905060018216806131d057607f821691505b6020821081036131e3576131e2613189565b5b50919050565b60006040820190506131fe6000830185612de3565b61320b6020830184612de3565b9392505050565b60006040820190506132276000830185612557565b6132346020830184612557565b9392505050565b7f4e487b7100000000000000000000000000000000000000000000000000000000600052603260045260246000fd5b7f417272617973206c656e677468206d69736d6174636800000000000000000000600082015250565b60006132a06016836127d6565b91506132ab8261326a565b602082019050919050565b600060208201905081810360008301526132cf81613293565b9050919050565b60008190508160005260206000209050919050565b60006020601f8301049050919050565b600082821b905092915050565b6000600883026133387fffffffffffffffffffffffffffffffffffffffffffffffffffffffffffffffff826132fb565b61334286836132fb565b95508019841693508086168417925050509392505050565b6000819050919050565b600061337f61337a613375846124e1565b61335a565b6124e1565b9050919050565b6000819050919050565b61339983613364565b6133ad6133a582613386565b848454613308565b825550505050565b600090565b6133c26133b5565b6133cd818484613390565b505050565b5b818110156133f1576133e66000826133ba565b6001810190506133d3565b5050565b601f82111561343657613407816132d6565b613410846132eb565b8101602085101561341f578190505b61343361342b856132eb565b8301826133d2565b50505b505050565b600082821c905092915050565b60006134596000198460080261343b565b1980831691505092915050565b60006134728383613448565b9150826002028217905092915050565b61348b826127cb565b67ffffffffffffffff8111156134a4576134a3612657565b5b6134ae82546131b8565b6134b98282856133f5565b600060209050601f8311600181146134ec57600084156134da578287015190505b6134e48582613466565b86555061354c565b601f1984166134fa866132d6565b60005b82811015613522578489015182556001820191506020850194506020810190506134fd565b8683101561353f578489015161353b601f891682613448565b8355505b6001600288020188555050505b505050505050565b600081519050919050565b600082825260208201905092915050565b600061357b82613554565b613585818561355f565b93506135958185602086016127e7565b61359e81612646565b840191505092915050565b600060a0820190506135be6000830188612de3565b6135cb6020830187612de3565b6135d86040830186612557565b6135e56060830185612557565b81810360808301526135f78184613570565b90509695505050505050565b600081519050613612816125ad565b92915050565b60006020828403121561362e5761362d612479565b5b600061363c84828501613603565b91505092915050565b600060a08201905061365a6000830188612de3565b6136676020830187612de3565b81810360408301526136798186612cd8565b9050818103606083015261368d8185612cd8565b905081810360808301526136a18184613570565b90509695505050505050565b7f4e487b7100000000000000000000000000000000000000000000000000000000600052601160045260246000fd5b60006136e7826124e1565b91506136f2836124e1565b925082820190508082111561370a576137096136ad565b5b92915050565b60006080820190506137256000830187612de3565b6137326020830186612557565b61373f6040830185612557565b61374c6060830184612557565b95945050505050565b6000604082019050818103600083015261376f8185612cd8565b905081810360208301526137838184612cd8565b9050939250505056fea264697066735822122006dbd72fffe74d1a63b50ca6ae0811ddb0a7c254c2d84d09fd81c1aaecf68edd64736f6c6343000818003368747470733a2f2f6170692e756e696d6174652e636f6d2f6d657461646174612f7b69647d2e6a736f6e","linkReferences":{}},"methodIdentifiers":{"balanceOf(address,uint256)":"00fdd58e","balanceOfBatch(address[],uint256[])":"4e1273f4","burn(address,uint256,uint256)":"f5298aca","burnBatch(address,uint256[],uint256[])":"6b20c454","exists(uint256)":"4f558e79","isApprovedForAll(address,address)":"e985e9c5","isSoulbound(uint256)":"911ec470","mint(address,uint256,uint256,bool)":"dbf110a7","mintBatch(address,uint256[],uint256[],bool[])":"e46280a4","name()":"06fdde03","owner()":"8da5cb5b","pause()":"8456cb59","paused()":"5c975abb","renounceOwnership()":"715018a6","safeBatchTransferFrom(address,address,uint256[],uint256[],bytes)":"2eb2c2d6","safeTransferFrom(address,address,uint256,uint256,bytes)":"f242432a","setApprovalForAll(address,bool)":"a22cb465","setSoulboundStatus(uint256,bool)":"21e44f33","setURI(string)":"02fe5305","supportsInterface(bytes4)":"01ffc9a7","symbol()":"95d89b41","totalSupply()":"18160ddd","totalSupply(uint256)":"bd85b039","transferOwnership(address)":"f2fde38b","unpause()":"3f4ba83a","uri(uint256)":"0e89341c"},"id":67}