{"abi":[{"type":"constructor","inputs":[{"name":"_well","type":"address","internalType":"address"},{"name":"_initialOwner","type":"address","internalType":"address"},{"name":"_signer","type":"address","internalType":"address"}],"stateMutability":"nonpayable"},{"type":"function","name":"acceptOwnership","inputs":[],"outputs":[],"stateMutability":"nonpayable"},{"type":"function","name":"eip712Domain","inputs":[],"outputs":[{"name":"fields","type":"bytes1","internalType":"bytes1"},{"name":"name","type":"string","internalType":"string"},{"name":"version","type":"string","internalType":"string"},{"name":"chainId","type":"uint256","internalType":"uint256"},{"name":"verifyingContract","type":"address","internalType":"address"},{"name":"salt","type":"bytes32","internalType":"bytes32"},{"name":"extensions","type":"uint256[]","internalType":"uint256[]"}],"stateMutability":"view"},{"type":"function","name":"isActionUsed","inputs":[{"name":"actionId","type":"bytes32","internalType":"bytes32"}],"outputs":[{"name":"","type":"bool","internalType":"bool"}],"stateMutability":"view"},{"type":"function","name":"mintWithSig","inputs":[{"name":"to","type":"address","internalType":"address"},{"name":"amount","type":"uint256","internalType":"uint256"},{"name":"deadline","type":"uint256","internalType":"uint256"},{"name":"actionId","type":"bytes32","internalType":"bytes32"},{"name":"sig","type":"bytes","internalType":"bytes"}],"outputs":[],"stateMutability":"nonpayable"},{"type":"function","name":"owner","inputs":[],"outputs":[{"name":"","type":"address","internalType":"address"}],"stateMutability":"view"},{"type":"function","name":"pause","inputs":[],"outputs":[],"stateMutability":"nonpayable"},{"type":"function","name":"paused","inputs":[],"outputs":[{"name":"","type":"bool","internalType":"bool"}],"stateMutability":"view"},{"type":"function","name":"pendingOwner","inputs":[],"outputs":[{"name":"","type":"address","internalType":"address"}],"stateMutability":"view"},{"type":"function","name":"renounceOwnership","inputs":[],"outputs":[],"stateMutability":"nonpayable"},{"type":"function","name":"setSigner","inputs":[{"name":"_signer","type":"address","internalType":"address"}],"outputs":[],"stateMutability":"nonpayable"},{"type":"function","name":"signer","inputs":[],"outputs":[{"name":"","type":"address","internalType":"address"}],"stateMutability":"view"},{"type":"function","name":"transferOwnership","inputs":[{"name":"newOwner","type":"address","internalType":"address"}],"outputs":[],"stateMutability":"nonpayable"},{"type":"function","name":"unpause","inputs":[],"outputs":[],"stateMutability":"nonpayable"},{"type":"function","name":"used","inputs":[{"name":"","type":"bytes32","internalType":"bytes32"}],"outputs":[{"name":"","type":"bool","internalType":"bool"}],"stateMutability":"view"},{"type":"function","name":"well","inputs":[],"outputs":[{"name":"","type":"address","internalType":"contract IWELL"}],"stateMutability":"view"},{"type":"event","name":"EIP712DomainChanged","inputs":[],"anonymous":false},{"type":"event","name":"Minted","inputs":[{"name":"to","type":"address","indexed":true,"internalType":"address"},{"name":"amount","type":"uint256","indexed":false,"internalType":"uint256"},{"name":"actionId","type":"bytes32","indexed":true,"internalType":"bytes32"}],"anonymous":false},{"type":"event","name":"OwnershipTransferStarted","inputs":[{"name":"previousOwner","type":"address","indexed":true,"internalType":"address"},{"name":"newOwner","type":"address","indexed":true,"internalType":"address"}],"anonymous":false},{"type":"event","name":"OwnershipTransferred","inputs":[{"name":"previousOwner","type":"address","indexed":true,"internalType":"address"},{"name":"newOwner","type":"address","indexed":true,"internalType":"address"}],"anonymous":false},{"type":"event","name":"Paused","inputs":[{"name":"account","type":"address","indexed":false,"internalType":"address"}],"anonymous":false},{"type":"event","name":"SignerUpdated","inputs":[{"name":"previousSigner","type":"address","indexed":true,"internalType":"address"},{"name":"newSigner","type":"address","indexed":true,"internalType":"address"}],"anonymous":false},{"type":"event","name":"Unpaused","inputs":[{"name":"account","type":"address","indexed":false,"internalType":"address"}],"anonymous":false},{"type":"error","name":"ActionAlreadyUsed","inputs":[]},{"type":"error","name":"ECDSAInvalidSignature","inputs":[]},{"type":"error","name":"ECDSAInvalidSignatureLength","inputs":[{"name":"length","type":"uint256","internalType":"uint256"}]},{"type":"error","name":"ECDSAInvalidSignatureS","inputs":[{"name":"s","type":"bytes32","internalType":"bytes32"}]},{"type":"error","name":"EnforcedPause","inputs":[]},{"type":"error","name":"ExpectedPause","inputs":[]},{"type":"error","name":"ExpiredSignature","inputs":[]},{"type":"error","name":"InvalidShortString","inputs":[]},{"type":"error","name":"InvalidSigner","inputs":[]},{"type":"error","name":"NoChange","inputs":[]},{"type":"error","name":"OwnableInvalidOwner","inputs":[{"name":"owner","type":"address","internalType":"address"}]},{"type":"error","name":"OwnableUnauthorizedAccount","inputs":[{"name":"account","type":"address","internalType":"address"}]},{"type":"error","name":"ReentrancyGuardReentrantCall","inputs":[]},{"type":"error","name":"StringTooLong","inputs":[{"name":"str","type":"string","internalType":"string"}]},{"type":"error","name":"ZeroAddress","inputs":[]}],"bytecode":{"object":"0x6101806040523480156200001257600080fd5b5060405162002779380380620027798339818101604052810190620000389190620005d0565b816040518060400160405280600b81526020017f52656c61794d696e7465720000000000000000000000000000000000000000008152506040518060400160405280600181526020017f3100000000000000000000000000000000000000000000000000000000000000815250620000bb6000836200033b60201b90919060201c565b6101208181525050620000d96001826200033b60201b90919060201c565b6101408181525050818051906020012060e08181525050808051906020012061010081815250504660a08181525050620001186200039360201b60201c565b608081815250503073ffffffffffffffffffffffffffffffffffffffff1660c08173ffffffffffffffffffffffffffffffffffffffff16815250505050600073ffffffffffffffffffffffffffffffffffffffff168173ffffffffffffffffffffffffffffffffffffffff1603620001ca5760006040517f1e4fbdf7000000000000000000000000000000000000000000000000000000008152600401620001c191906200063d565b60405180910390fd5b620001db81620003f060201b60201c565b506001600481905550600073ffffffffffffffffffffffffffffffffffffffff168373ffffffffffffffffffffffffffffffffffffffff1614806200024c5750600073ffffffffffffffffffffffffffffffffffffffff168273ffffffffffffffffffffffffffffffffffffffff16145b80620002845750600073ffffffffffffffffffffffffffffffffffffffff168173ffffffffffffffffffffffffffffffffffffffff16145b15620002bc576040517fd92e233d00000000000000000000000000000000000000000000000000000000815260040160405180910390fd5b8273ffffffffffffffffffffffffffffffffffffffff166101608173ffffffffffffffffffffffffffffffffffffffff168152505080600560006101000a81548173ffffffffffffffffffffffffffffffffffffffff021916908373ffffffffffffffffffffffffffffffffffffffff16021790555050505062000b99565b6000602083511015620003615762000359836200042960201b60201c565b90506200038d565b8262000373836200049660201b60201c565b6000019081620003849190620008d4565b5060ff60001b90505b92915050565b60007f8b73c3c69bb8fe3d512ecc4cf759cc79239f7b179b0ffacaa9a75d522b39400f60e051610100514630604051602001620003d5959493929190620009e7565b60405160208183030381529060405280519060200120905090565b600360006101000a81549073ffffffffffffffffffffffffffffffffffffffff02191690556200042681620004a060201b60201c565b50565b600080829050601f815111156200047957826040517f305a27a900000000000000000000000000000000000000000000000000000000815260040162000470919062000ad3565b60405180910390fd5b805181620004879062000b29565b60001c1760001b915050919050565b6000819050919050565b6000600260009054906101000a900473ffffffffffffffffffffffffffffffffffffffff16905081600260006101000a81548173ffffffffffffffffffffffffffffffffffffffff021916908373ffffffffffffffffffffffffffffffffffffffff1602179055508173ffffffffffffffffffffffffffffffffffffffff168173ffffffffffffffffffffffffffffffffffffffff167f8be0079c531659141344cd1fd0a4f28419497f9722a3daafe3b4186f6b6457e060405160405180910390a35050565b600080fd5b600073ffffffffffffffffffffffffffffffffffffffff82169050919050565b600062000598826200056b565b9050919050565b620005aa816200058b565b8114620005b657600080fd5b50565b600081519050620005ca816200059f565b92915050565b600080600060608486031215620005ec57620005eb62000566565b5b6000620005fc86828701620005b9565b93505060206200060f86828701620005b9565b92505060406200062286828701620005b9565b9150509250925092565b62000637816200058b565b82525050565b60006020820190506200065460008301846200062c565b92915050565b600081519050919050565b7f4e487b7100000000000000000000000000000000000000000000000000000000600052604160045260246000fd5b7f4e487b7100000000000000000000000000000000000000000000000000000000600052602260045260246000fd5b60006002820490506001821680620006dc57607f821691505b602082108103620006f257620006f162000694565b5b50919050565b60008190508160005260206000209050919050565b60006020601f8301049050919050565b600082821b905092915050565b6000600883026200075c7fffffffffffffffffffffffffffffffffffffffffffffffffffffffffffffffff826200071d565b6200076886836200071d565b95508019841693508086168417925050509392505050565b6000819050919050565b6000819050919050565b6000620007b5620007af620007a98462000780565b6200078a565b62000780565b9050919050565b6000819050919050565b620007d18362000794565b620007e9620007e082620007bc565b8484546200072a565b825550505050565b600090565b62000800620007f1565b6200080d818484620007c6565b505050565b5b81811015620008355762000829600082620007f6565b60018101905062000813565b5050565b601f82111562000884576200084e81620006f8565b62000859846200070d565b8101602085101562000869578190505b6200088162000878856200070d565b83018262000812565b50505b505050565b600082821c905092915050565b6000620008a96000198460080262000889565b1980831691505092915050565b6000620008c4838362000896565b9150826002028217905092915050565b620008df826200065a565b67ffffffffffffffff811115620008fb57620008fa62000665565b5b620009078254620006c3565b6200091482828562000839565b600060209050601f8311600181146200094c576000841562000937578287015190505b620009438582620008b6565b865550620009b3565b601f1984166200095c86620006f8565b60005b8281101562000986578489015182556001820191506020850194506020810190506200095f565b86831015620009a65784890151620009a2601f89168262000896565b8355505b6001600288020188555050505b505050505050565b6000819050919050565b620009d081620009bb565b82525050565b620009e18162000780565b82525050565b600060a082019050620009fe6000830188620009c5565b62000a0d6020830187620009c5565b62000a1c6040830186620009c5565b62000a2b6060830185620009d6565b62000a3a60808301846200062c565b9695505050505050565b600082825260208201905092915050565b60005b8381101562000a7557808201518184015260208101905062000a58565b60008484015250505050565b6000601f19601f8301169050919050565b600062000a9f826200065a565b62000aab818562000a44565b935062000abd81856020860162000a55565b62000ac88162000a81565b840191505092915050565b6000602082019050818103600083015262000aef818462000a92565b905092915050565b600081519050919050565b6000819050602082019050919050565b600062000b208251620009bb565b80915050919050565b600062000b368262000af7565b8262000b428462000b02565b905062000b4f8162000b12565b9250602082101562000b925762000b8d7fffffffffffffffffffffffffffffffffffffffffffffffffffffffffffffffff836020036008026200071d565b831692505b5050919050565b60805160a05160c05160e05161010051610120516101405161016051611b7362000c0660003960008181610645015261096c01526000610c2201526000610be7015260006112530152600061123201526000610ee501526000610f3b01526000610f640152611b736000f3fe608060405234801561001057600080fd5b50600436106100f55760003560e01c806384b0196e11610097578063c6a1d17811610066578063c6a1d1781461020a578063e30c39781461023a578063f2fde38b14610258578063f319018314610274576100f5565b806384b0196e1461017a5780638da5cb5b1461019e578063b07c411f146101bc578063c0878f0c146101ec576100f5565b80636c19e783116100d35780636c19e78314610140578063715018a61461015c57806379ba5097146101665780638456cb5914610170576100f5565b8063238ac933146100fa5780633f4ba83a146101185780635c975abb14610122575b600080fd5b610102610290565b60405161010f9190611428565b60405180910390f35b6101206102b6565b005b61012a6102c8565b604051610137919061145e565b60405180910390f35b61015a600480360381019061015591906114af565b6102df565b005b61016461049a565b005b61016e6104ae565b005b61017861053d565b005b61018261054f565b6040516101959796959493929190611697565b60405180910390f35b6101a66105f9565b6040516101b39190611428565b60405180910390f35b6101d660048036038101906101d19190611747565b610623565b6040516101e3919061145e565b60405180910390f35b6101f4610643565b60405161020191906117d3565b60405180910390f35b610224600480360381019061021f9190611747565b610667565b604051610231919061145e565b60405180910390f35b610242610691565b60405161024f9190611428565b60405180910390f35b610272600480360381019061026d91906114af565b6106bb565b005b61028e6004803603810190610289919061187f565b610768565b005b600560009054906101000a900473ffffffffffffffffffffffffffffffffffffffff1681565b6102be610a58565b6102c6610adf565b565b6000600360149054906101000a900460ff16905090565b6102e7610a58565b600073ffffffffffffffffffffffffffffffffffffffff168173ffffffffffffffffffffffffffffffffffffffff160361034d576040517fd92e233d00000000000000000000000000000000000000000000000000000000815260040160405180910390fd5b600560009054906101000a900473ffffffffffffffffffffffffffffffffffffffff1673ffffffffffffffffffffffffffffffffffffffff168173ffffffffffffffffffffffffffffffffffffffff16036103d4576040517fa88ee57700000000000000000000000000000000000000000000000000000000815260040160405180910390fd5b6000600560009054906101000a900473ffffffffffffffffffffffffffffffffffffffff16905081600560006101000a81548173ffffffffffffffffffffffffffffffffffffffff021916908373ffffffffffffffffffffffffffffffffffffffff1602179055508173ffffffffffffffffffffffffffffffffffffffff168173ffffffffffffffffffffffffffffffffffffffff167f2d025324f0a785e8c12d0a0d91a9caa49df4ef20ff87e0df7213a1d4f3157beb60405160405180910390a35050565b6104a2610a58565b6104ac6000610b42565b565b60006104b8610b73565b90508073ffffffffffffffffffffffffffffffffffffffff166104d9610691565b73ffffffffffffffffffffffffffffffffffffffff161461053157806040517f118cdaa70000000000000000000000000000000000000000000000000000000081526004016105289190611428565b60405180910390fd5b61053a81610b42565b50565b610545610a58565b61054d610b7b565b565b600060608060008060006060610563610bde565b61056b610c19565b46306000801b600067ffffffffffffffff81111561058c5761058b611919565b5b6040519080825280602002602001820160405280156105ba5781602001602082028036833780820191505090505b507f0f00000000000000000000000000000000000000000000000000000000000000959493929190965096509650965096509650965090919293949596565b6000600260009054906101000a900473ffffffffffffffffffffffffffffffffffffffff16905090565b60066020528060005260406000206000915054906101000a900460ff1681565b7f000000000000000000000000000000000000000000000000000000000000000081565b60006006600083815260200190815260200160002060009054906101000a900460ff169050919050565b6000600360009054906101000a900473ffffffffffffffffffffffffffffffffffffffff16905090565b6106c3610a58565b80600360006101000a81548173ffffffffffffffffffffffffffffffffffffffff021916908373ffffffffffffffffffffffffffffffffffffffff1602179055508073ffffffffffffffffffffffffffffffffffffffff166107236105f9565b73ffffffffffffffffffffffffffffffffffffffff167f38d16b8cac22d99fc7c124b9cd0de2d3fa1faef420bfe791d8c362d765e2270060405160405180910390a350565b610770610c54565b610778610c95565b834211156107b2576040517fdf4cc36d00000000000000000000000000000000000000000000000000000000815260040160405180910390fd5b6006600084815260200190815260200160002060009054906101000a900460ff161561080a576040517ffae1229000000000000000000000000000000000000000000000000000000000815260040160405180910390fd5b60006108637f846fc0f8eebf16f8375e88cc1da7461f1cd94e41cae5be765ea85bbe5aea6f8488888888604051602001610848959493929190611948565b60405160208183030381529060405280519060200120610cdb565b905060006108b58285858080601f016020809104026020016040519081016040528093929190818152602001838380828437600081840152601f19601f82011690508083019250505050505050610cf5565b9050600560009054906101000a900473ffffffffffffffffffffffffffffffffffffffff1673ffffffffffffffffffffffffffffffffffffffff168173ffffffffffffffffffffffffffffffffffffffff161461093e576040517f815e1d6400000000000000000000000000000000000000000000000000000000815260040160405180910390fd5b60016006600087815260200190815260200160002060006101000a81548160ff0219169083151502179055507f000000000000000000000000000000000000000000000000000000000000000073ffffffffffffffffffffffffffffffffffffffff166340c10f1989896040518363ffffffff1660e01b81526004016109c592919061199b565b600060405180830381600087803b1580156109df57600080fd5b505af11580156109f3573d6000803e3d6000fd5b50505050848873ffffffffffffffffffffffffffffffffffffffff167fc263b302aec62d29105026245f19e16f8e0137066ccd4a8bd941f716bd4096bb89604051610a3e91906119c4565b60405180910390a35050610a50610d21565b505050505050565b610a60610b73565b73ffffffffffffffffffffffffffffffffffffffff16610a7e6105f9565b73ffffffffffffffffffffffffffffffffffffffff1614610add57610aa1610b73565b6040517f118cdaa7000000000000000000000000000000000000000000000000000000008152600401610ad49190611428565b60405180910390fd5b565b610ae7610d2b565b6000600360146101000a81548160ff0219169083151502179055507f5db9ee0a495bf2e6ff9c91a7834c1ba4fdd244a5e8aa4e537bd38aeae4b073aa610b2b610b73565b604051610b389190611428565b60405180910390a1565b600360006101000a81549073ffffffffffffffffffffffffffffffffffffffff0219169055610b7081610d6b565b50565b600033905090565b610b83610c54565b6001600360146101000a81548160ff0219169083151502179055507f62e78cea01bee320cd4e420270b5ea74000d11b0c9f74754ebdbfc544b05a258610bc7610b73565b604051610bd49190611428565b60405180910390a1565b6060610c1460007f0000000000000000000000000000000000000000000000000000000000000000610e3190919063ffffffff16565b905090565b6060610c4f60017f0000000000000000000000000000000000000000000000000000000000000000610e3190919063ffffffff16565b905090565b610c5c6102c8565b15610c93576040517fd93c066500000000000000000000000000000000000000000000000000000000815260040160405180910390fd5b565b600260045403610cd1576040517f3ee5aeb500000000000000000000000000000000000000000000000000000000815260040160405180910390fd5b6002600481905550565b6000610cee610ce8610ee1565b83610f98565b9050919050565b600080600080610d058686610fd9565b925092509250610d158282611035565b82935050505092915050565b6001600481905550565b610d336102c8565b610d69576040517f8dfc202b00000000000000000000000000000000000000000000000000000000815260040160405180910390fd5b565b6000600260009054906101000a900473ffffffffffffffffffffffffffffffffffffffff16905081600260006101000a81548173ffffffffffffffffffffffffffffffffffffffff021916908373ffffffffffffffffffffffffffffffffffffffff1602179055508173ffffffffffffffffffffffffffffffffffffffff168173ffffffffffffffffffffffffffffffffffffffff167f8be0079c531659141344cd1fd0a4f28419497f9722a3daafe3b4186f6b6457e060405160405180910390a35050565b606060ff60001b8314610e4e57610e4783611199565b9050610edb565b818054610e5a90611a0e565b80601f0160208091040260200160405190810160405280929190818152602001828054610e8690611a0e565b8015610ed35780601f10610ea857610100808354040283529160200191610ed3565b820191906000526020600020905b815481529060010190602001808311610eb657829003601f168201915b505050505090505b92915050565b60007f000000000000000000000000000000000000000000000000000000000000000073ffffffffffffffffffffffffffffffffffffffff163073ffffffffffffffffffffffffffffffffffffffff16148015610f5d57507f000000000000000000000000000000000000000000000000000000000000000046145b15610f8a577f00000000000000000000000000000000000000000000000000000000000000009050610f95565b610f9261120d565b90505b90565b60006040517f190100000000000000000000000000000000000000000000000000000000000081528360028201528260228201526042812091505092915050565b6000806000604184510361101e5760008060006020870151925060408701519150606087015160001a9050611010888285856112a3565b95509550955050505061102e565b60006002855160001b9250925092505b9250925092565b6000600381111561104957611048611a3f565b5b82600381111561105c5761105b611a3f565b5b0315611195576001600381111561107657611075611a3f565b5b82600381111561108957611088611a3f565b5b036110c0576040517ff645eedf00000000000000000000000000000000000000000000000000000000815260040160405180910390fd5b600260038111156110d4576110d3611a3f565b5b8260038111156110e7576110e6611a3f565b5b0361112c578060001c6040517ffce698f700000000000000000000000000000000000000000000000000000000815260040161112391906119c4565b60405180910390fd5b60038081111561113f5761113e611a3f565b5b82600381111561115257611151611a3f565b5b0361119457806040517fd78bce0c00000000000000000000000000000000000000000000000000000000815260040161118b9190611a6e565b60405180910390fd5b5b5050565b606060006111a683611397565b90506000602067ffffffffffffffff8111156111c5576111c4611919565b5b6040519080825280601f01601f1916602001820160405280156111f75781602001600182028036833780820191505090505b5090508181528360208201528092505050919050565b60007f8b73c3c69bb8fe3d512ecc4cf759cc79239f7b179b0ffacaa9a75d522b39400f7f00000000000000000000000000000000000000000000000000000000000000007f00000000000000000000000000000000000000000000000000000000000000004630604051602001611288959493929190611a89565b60405160208183030381529060405280519060200120905090565b60008060007f7fffffffffffffffffffffffffffffff5d576e7357a4501ddfe92f46681b20a08460001c11156112e357600060038592509250925061138d565b6000600188888888604051600081526020016040526040516113089493929190611af8565b6020604051602081039080840390855afa15801561132a573d6000803e3d6000fd5b505050602060405103519050600073ffffffffffffffffffffffffffffffffffffffff168173ffffffffffffffffffffffffffffffffffffffff160361137e57600060016000801b9350935093505061138d565b8060008060001b935093509350505b9450945094915050565b60008060ff8360001c169050601f8111156113de576040517fb3512b0c00000000000000000000000000000000000000000000000000000000815260040160405180910390fd5b80915050919050565b600073ffffffffffffffffffffffffffffffffffffffff82169050919050565b6000611412826113e7565b9050919050565b61142281611407565b82525050565b600060208201905061143d6000830184611419565b92915050565b60008115159050919050565b61145881611443565b82525050565b6000602082019050611473600083018461144f565b92915050565b600080fd5b600080fd5b61148c81611407565b811461149757600080fd5b50565b6000813590506114a981611483565b92915050565b6000602082840312156114c5576114c4611479565b5b60006114d38482850161149a565b91505092915050565b60007fff0000000000000000000000000000000000000000000000000000000000000082169050919050565b611511816114dc565b82525050565b600081519050919050565b600082825260208201905092915050565b60005b83811015611551578082015181840152602081019050611536565b60008484015250505050565b6000601f19601f8301169050919050565b600061157982611517565b6115838185611522565b9350611593818560208601611533565b61159c8161155d565b840191505092915050565b6000819050919050565b6115ba816115a7565b82525050565b6000819050919050565b6115d3816115c0565b82525050565b600081519050919050565b600082825260208201905092915050565b6000819050602082019050919050565b61160e816115a7565b82525050565b60006116208383611605565b60208301905092915050565b6000602082019050919050565b6000611644826115d9565b61164e81856115e4565b9350611659836115f5565b8060005b8381101561168a5781516116718882611614565b975061167c8361162c565b92505060018101905061165d565b5085935050505092915050565b600060e0820190506116ac600083018a611508565b81810360208301526116be818961156e565b905081810360408301526116d2818861156e565b90506116e160608301876115b1565b6116ee6080830186611419565b6116fb60a08301856115ca565b81810360c083015261170d8184611639565b905098975050505050505050565b611724816115c0565b811461172f57600080fd5b50565b6000813590506117418161171b565b92915050565b60006020828403121561175d5761175c611479565b5b600061176b84828501611732565b91505092915050565b6000819050919050565b600061179961179461178f846113e7565b611774565b6113e7565b9050919050565b60006117ab8261177e565b9050919050565b60006117bd826117a0565b9050919050565b6117cd816117b2565b82525050565b60006020820190506117e860008301846117c4565b92915050565b6117f7816115a7565b811461180257600080fd5b50565b600081359050611814816117ee565b92915050565b600080fd5b600080fd5b600080fd5b60008083601f84011261183f5761183e61181a565b5b8235905067ffffffffffffffff81111561185c5761185b61181f565b5b60208301915083600182028301111561187857611877611824565b5b9250929050565b60008060008060008060a0878903121561189c5761189b611479565b5b60006118aa89828a0161149a565b96505060206118bb89828a01611805565b95505060406118cc89828a01611805565b94505060606118dd89828a01611732565b935050608087013567ffffffffffffffff8111156118fe576118fd61147e565b5b61190a89828a01611829565b92509250509295509295509295565b7f4e487b7100000000000000000000000000000000000000000000000000000000600052604160045260246000fd5b600060a08201905061195d60008301886115ca565b61196a6020830187611419565b61197760408301866115b1565b61198460608301856115b1565b61199160808301846115ca565b9695505050505050565b60006040820190506119b06000830185611419565b6119bd60208301846115b1565b9392505050565b60006020820190506119d960008301846115b1565b92915050565b7f4e487b7100000000000000000000000000000000000000000000000000000000600052602260045260246000fd5b60006002820490506001821680611a2657607f821691505b602082108103611a3957611a386119df565b5b50919050565b7f4e487b7100000000000000000000000000000000000000000000000000000000600052602160045260246000fd5b6000602082019050611a8360008301846115ca565b92915050565b600060a082019050611a9e60008301886115ca565b611aab60208301876115ca565b611ab860408301866115ca565b611ac560608301856115b1565b611ad26080830184611419565b9695505050505050565b600060ff82169050919050565b611af281611adc565b82525050565b6000608082019050611b0d60008301876115ca565b611b1a6020830186611ae9565b611b2760408301856115ca565b611b3460608301846115ca565b9594505050505056fea2646970667358221220414692785c5bb4107eb7e4996992fa6ede3ae0dd98d7b25322562ea42f2bb3ad64736f6c63430008180033","linkReferences":{}},"methodIdentifiers":{"acceptOwnership()":"79ba5097","eip712Domain()":"84b0196e","isActionUsed(bytes32)":"c6a1d178","mintWithSig(address,uint256,uint256,bytes32,bytes)":"f3190183","owner()":"8da5cb5b","pause()":"8456cb59","paused()":"5c975abb","pendingOwner()":"e30c3978","renounceOwnership()":"715018a6","setSigner(address)":"6c19e783","signer()":"238ac933","transferOwnership(address)":"f2fde38b","unpause()":"3f4ba83a","used(bytes32)":"b07c411f","well()":"c0878f0c"},"id":32}