{"abi":[{"type":"constructor","inputs":[{"name":"well_","type":"address","internalType":"address"},{"name":"admin","type":"address","internalType":"address"},{"name":"relayerWallet","type":"address","internalType":"address"},{"name":"rate_","type":"uint256","internalType":"uint256"},{"name":"backendSigner_","type":"address","internalType":"address"},{"name":"pointsToWellRate_","type":"uint256","internalType":"uint256"}],"stateMutability":"nonpayable"},{"type":"function","name":"ADMIN_ROLE","inputs":[],"outputs":[{"name":"","type":"bytes32","internalType":"bytes32"}],"stateMutability":"view"},{"type":"function","name":"BACKEND_ROLE","inputs":[],"outputs":[{"name":"","type":"bytes32","internalType":"bytes32"}],"stateMutability":"view"},{"type":"function","name":"DEFAULT_ADMIN_ROLE","inputs":[],"outputs":[{"name":"","type":"bytes32","internalType":"bytes32"}],"stateMutability":"view"},{"type":"function","name":"PAUSER_ROLE","inputs":[],"outputs":[{"name":"","type":"bytes32","internalType":"bytes32"}],"stateMutability":"view"},{"type":"function","name":"backendSigner","inputs":[],"outputs":[{"name":"","type":"address","internalType":"address"}],"stateMutability":"view"},{"type":"function","name":"batchReconcile","inputs":[{"name":"users","type":"address[]","internalType":"address[]"},{"name":"points","type":"uint256[]","internalType":"uint256[]"}],"outputs":[],"stateMutability":"nonpayable"},{"type":"function","name":"canUserRedeem","inputs":[{"name":"user","type":"address","internalType":"address"},{"name":"amount","type":"uint256","internalType":"uint256"}],"outputs":[{"name":"canRedeem","type":"bool","internalType":"bool"}],"stateMutability":"view"},{"type":"function","name":"eip712Domain","inputs":[],"outputs":[{"name":"fields","type":"bytes1","internalType":"bytes1"},{"name":"name","type":"string","internalType":"string"},{"name":"version","type":"string","internalType":"string"},{"name":"chainId","type":"uint256","internalType":"uint256"},{"name":"verifyingContract","type":"address","internalType":"address"},{"name":"salt","type":"bytes32","internalType":"bytes32"},{"name":"extensions","type":"uint256[]","internalType":"uint256[]"}],"stateMutability":"view"},{"type":"function","name":"getRate","inputs":[],"outputs":[{"name":"","type":"uint256","internalType":"uint256"}],"stateMutability":"view"},{"type":"function","name":"getRoleAdmin","inputs":[{"name":"role","type":"bytes32","internalType":"bytes32"}],"outputs":[{"name":"","type":"bytes32","internalType":"bytes32"}],"stateMutability":"view"},{"type":"function","name":"grantRole","inputs":[{"name":"role","type":"bytes32","internalType":"bytes32"},{"name":"account","type":"address","internalType":"address"}],"outputs":[],"stateMutability":"nonpayable"},{"type":"function","name":"hasRole","inputs":[{"name":"role","type":"bytes32","internalType":"bytes32"},{"name":"account","type":"address","internalType":"address"}],"outputs":[{"name":"","type":"bool","internalType":"bool"}],"stateMutability":"view"},{"type":"function","name":"isNonceUsed","inputs":[{"name":"nonce","type":"uint256","internalType":"uint256"}],"outputs":[{"name":"used","type":"bool","internalType":"bool"}],"stateMutability":"view"},{"type":"function","name":"pointsToWell","inputs":[{"name":"points","type":"uint256","internalType":"uint256"}],"outputs":[{"name":"wellAmount","type":"uint256","internalType":"uint256"}],"stateMutability":"view"},{"type":"function","name":"pointsToWellRate","inputs":[],"outputs":[{"name":"","type":"uint256","internalType":"uint256"}],"stateMutability":"view"},{"type":"function","name":"ratePerVoucher","inputs":[],"outputs":[{"name":"","type":"uint256","internalType":"uint256"}],"stateMutability":"view"},{"type":"function","name":"redeem","inputs":[{"name":"rewardId","type":"string","internalType":"string"},{"name":"wellAmount","type":"uint256","internalType":"uint256"}],"outputs":[],"stateMutability":"nonpayable"},{"type":"function","name":"redeemWithPoints","inputs":[{"name":"user","type":"address","internalType":"address"},{"name":"points","type":"uint256","internalType":"uint256"},{"name":"rewardId","type":"string","internalType":"string"},{"name":"nonce","type":"uint256","internalType":"uint256"},{"name":"deadline","type":"uint256","internalType":"uint256"},{"name":"signature","type":"bytes","internalType":"bytes"}],"outputs":[],"stateMutability":"nonpayable"},{"type":"function","name":"renounceRole","inputs":[{"name":"role","type":"bytes32","internalType":"bytes32"},{"name":"callerConfirmation","type":"address","internalType":"address"}],"outputs":[],"stateMutability":"nonpayable"},{"type":"function","name":"revokeRole","inputs":[{"name":"role","type":"bytes32","internalType":"bytes32"},{"name":"account","type":"address","internalType":"address"}],"outputs":[],"stateMutability":"nonpayable"},{"type":"function","name":"setBackendSigner","inputs":[{"name":"newSigner","type":"address","internalType":"address"}],"outputs":[],"stateMutability":"nonpayable"},{"type":"function","name":"setPointsToWellRate","inputs":[{"name":"newRate","type":"uint256","internalType":"uint256"}],"outputs":[],"stateMutability":"nonpayable"},{"type":"function","name":"setRate","inputs":[{"name":"newRate","type":"uint256","internalType":"uint256"}],"outputs":[],"stateMutability":"nonpayable"},{"type":"function","name":"supportsInterface","inputs":[{"name":"interfaceId","type":"bytes4","internalType":"bytes4"}],"outputs":[{"name":"","type":"bool","internalType":"bool"}],"stateMutability":"view"},{"type":"function","name":"usedNonces","inputs":[{"name":"","type":"uint256","internalType":"uint256"}],"outputs":[{"name":"","type":"bool","internalType":"bool"}],"stateMutability":"view"},{"type":"function","name":"well","inputs":[],"outputs":[{"name":"","type":"address","internalType":"contract ERC20Burnable"}],"stateMutability":"view"},{"type":"event","name":"BackendSignerUpdated","inputs":[{"name":"oldSigner","type":"address","indexed":false,"internalType":"address"},{"name":"newSigner","type":"address","indexed":false,"internalType":"address"}],"anonymous":false},{"type":"event","name":"BatchReconciled","inputs":[{"name":"userCount","type":"uint256","indexed":false,"internalType":"uint256"},{"name":"timestamp","type":"uint256","indexed":false,"internalType":"uint256"}],"anonymous":false},{"type":"event","name":"ChallengeRedemption","inputs":[{"name":"user","type":"address","indexed":true,"internalType":"address"},{"name":"pointsSpent","type":"uint256","indexed":false,"internalType":"uint256"},{"name":"wellMinted","type":"uint256","indexed":false,"internalType":"uint256"},{"name":"rewardId","type":"string","indexed":false,"internalType":"string"}],"anonymous":false},{"type":"event","name":"EIP712DomainChanged","inputs":[],"anonymous":false},{"type":"event","name":"PointsRateUpdated","inputs":[{"name":"oldRate","type":"uint256","indexed":false,"internalType":"uint256"},{"name":"newRate","type":"uint256","indexed":false,"internalType":"uint256"}],"anonymous":false},{"type":"event","name":"PointsReconciled","inputs":[{"name":"user","type":"address","indexed":true,"internalType":"address"},{"name":"points","type":"uint256","indexed":false,"internalType":"uint256"},{"name":"wellMinted","type":"uint256","indexed":false,"internalType":"uint256"}],"anonymous":false},{"type":"event","name":"RateUpdated","inputs":[{"name":"oldRate","type":"uint256","indexed":false,"internalType":"uint256"},{"name":"newRate","type":"uint256","indexed":false,"internalType":"uint256"}],"anonymous":false},{"type":"event","name":"Redeemed","inputs":[{"name":"user","type":"address","indexed":true,"internalType":"address"},{"name":"wellSpent","type":"uint256","indexed":false,"internalType":"uint256"},{"name":"rewardId","type":"string","indexed":false,"internalType":"string"}],"anonymous":false},{"type":"event","name":"RoleAdminChanged","inputs":[{"name":"role","type":"bytes32","indexed":true,"internalType":"bytes32"},{"name":"previousAdminRole","type":"bytes32","indexed":true,"internalType":"bytes32"},{"name":"newAdminRole","type":"bytes32","indexed":true,"internalType":"bytes32"}],"anonymous":false},{"type":"event","name":"RoleGranted","inputs":[{"name":"role","type":"bytes32","indexed":true,"internalType":"bytes32"},{"name":"account","type":"address","indexed":true,"internalType":"address"},{"name":"sender","type":"address","indexed":true,"internalType":"address"}],"anonymous":false},{"type":"event","name":"RoleRevoked","inputs":[{"name":"role","type":"bytes32","indexed":true,"internalType":"bytes32"},{"name":"account","type":"address","indexed":true,"internalType":"address"},{"name":"sender","type":"address","indexed":true,"internalType":"address"}],"anonymous":false},{"type":"error","name":"AccessControlBadConfirmation","inputs":[]},{"type":"error","name":"AccessControlUnauthorizedAccount","inputs":[{"name":"account","type":"address","internalType":"address"},{"name":"neededRole","type":"bytes32","internalType":"bytes32"}]},{"type":"error","name":"ArrayLengthMismatch","inputs":[]},{"type":"error","name":"BatchTooLarge","inputs":[]},{"type":"error","name":"ECDSAInvalidSignature","inputs":[]},{"type":"error","name":"ECDSAInvalidSignatureLength","inputs":[{"name":"length","type":"uint256","internalType":"uint256"}]},{"type":"error","name":"ECDSAInvalidSignatureS","inputs":[{"name":"s","type":"bytes32","internalType":"bytes32"}]},{"type":"error","name":"InsufficientAllowance","inputs":[]},{"type":"error","name":"InsufficientBalance","inputs":[]},{"type":"error","name":"InsufficientWellAllowance","inputs":[]},{"type":"error","name":"InsufficientWellBalance","inputs":[]},{"type":"error","name":"InvalidAmount","inputs":[]},{"type":"error","name":"InvalidBackendSigner","inputs":[]},{"type":"error","name":"InvalidShortString","inputs":[]},{"type":"error","name":"InvalidSignature","inputs":[]},{"type":"error","name":"NonceAlreadyUsed","inputs":[]},{"type":"error","name":"ReentrancyGuardReentrantCall","inputs":[]},{"type":"error","name":"SignatureExpired","inputs":[]},{"type":"error","name":"StringTooLong","inputs":[{"name":"str","type":"string","internalType":"string"}]}],"bytecode":{"object":"0x6101806040523480156200001257600080fd5b5060405162003b9138038062003b91833981810160405281019062000038919062000646565b6040518060400160405280601881526020017f556e694d61746520526564656d7074696f6e53797374656d00000000000000008152506040518060400160405280600181526020017f310000000000000000000000000000000000000000000000000000000000000081525060018081905550620000c16002836200030060201b90919060201c565b6101208181525050620000df6003826200030060201b90919060201c565b6101408181525050818051906020012060e08181525050808051906020012061010081815250504660a081815250506200011e6200035860201b60201c565b608081815250503073ffffffffffffffffffffffffffffffffffffffff1660c08173ffffffffffffffffffffffffffffffffffffffff168152505050508573ffffffffffffffffffffffffffffffffffffffff166101608173ffffffffffffffffffffffffffffffffffffffff16815250508260048190555081600560006101000a81548173ffffffffffffffffffffffffffffffffffffffff021916908373ffffffffffffffffffffffffffffffffffffffff16021790555080600681905550620001f46000801b86620003b560201b60201c565b50620002277fa49807205ce4d355092ef5a8a18f56e8913cf4a201fbe287825b095693c2177586620003b560201b60201c565b506200025a7f25cf2b509f2a7f322675b2a5322b182f44ad2c03ac941a0af17c9b178f5d5d5f86620003b560201b60201c565b506200028d7f65d7a28e3265b37a6474929f336521b332c1681b933f6cb9f3376673440d862a86620003b560201b60201c565b50620002c07f25cf2b509f2a7f322675b2a5322b182f44ad2c03ac941a0af17c9b178f5d5d5f85620003b560201b60201c565b50620002f37f65d7a28e3265b37a6474929f336521b332c1681b933f6cb9f3376673440d862a85620003b560201b60201c565b5050505050505062000c28565b600060208351101562000326576200031e83620004b860201b60201c565b905062000352565b8262000338836200052560201b60201c565b600001908162000349919062000952565b5060ff60001b90505b92915050565b60007f8b73c3c69bb8fe3d512ecc4cf759cc79239f7b179b0ffacaa9a75d522b39400f60e0516101005146306040516020016200039a95949392919062000a76565b60405160208183030381529060405280519060200120905090565b6000620003c983836200052f60201b60201c565b620004ad57600160008085815260200190815260200160002060000160008473ffffffffffffffffffffffffffffffffffffffff1673ffffffffffffffffffffffffffffffffffffffff16815260200190815260200160002060006101000a81548160ff021916908315150217905550620004496200059960201b60201c565b73ffffffffffffffffffffffffffffffffffffffff168273ffffffffffffffffffffffffffffffffffffffff16847f2f8788117e7eff1d82e926ec794901d17c78024a50270940304540a733656f0d60405160405180910390a460019050620004b2565b600090505b92915050565b600080829050601f815111156200050857826040517f305a27a9000000000000000000000000000000000000000000000000000000008152600401620004ff919062000b62565b60405180910390fd5b805181620005169062000bb8565b60001c1760001b915050919050565b6000819050919050565b600080600084815260200190815260200160002060000160008373ffffffffffffffffffffffffffffffffffffffff1673ffffffffffffffffffffffffffffffffffffffff16815260200190815260200160002060009054906101000a900460ff16905092915050565b600033905090565b600080fd5b600073ffffffffffffffffffffffffffffffffffffffff82169050919050565b6000620005d382620005a6565b9050919050565b620005e581620005c6565b8114620005f157600080fd5b50565b6000815190506200060581620005da565b92915050565b6000819050919050565b62000620816200060b565b81146200062c57600080fd5b50565b600081519050620006408162000615565b92915050565b60008060008060008060c08789031215620006665762000665620005a1565b5b60006200067689828a01620005f4565b96505060206200068989828a01620005f4565b95505060406200069c89828a01620005f4565b9450506060620006af89828a016200062f565b9350506080620006c289828a01620005f4565b92505060a0620006d589828a016200062f565b9150509295509295509295565b600081519050919050565b7f4e487b7100000000000000000000000000000000000000000000000000000000600052604160045260246000fd5b7f4e487b7100000000000000000000000000000000000000000000000000000000600052602260045260246000fd5b600060028204905060018216806200076457607f821691505b6020821081036200077a57620007796200071c565b5b50919050565b60008190508160005260206000209050919050565b60006020601f8301049050919050565b600082821b905092915050565b600060088302620007e47fffffffffffffffffffffffffffffffffffffffffffffffffffffffffffffffff82620007a5565b620007f08683620007a5565b95508019841693508086168417925050509392505050565b6000819050919050565b6000620008336200082d62000827846200060b565b62000808565b6200060b565b9050919050565b6000819050919050565b6200084f8362000812565b620008676200085e826200083a565b848454620007b2565b825550505050565b600090565b6200087e6200086f565b6200088b81848462000844565b505050565b5b81811015620008b357620008a760008262000874565b60018101905062000891565b5050565b601f8211156200090257620008cc8162000780565b620008d78462000795565b81016020851015620008e7578190505b620008ff620008f68562000795565b83018262000890565b50505b505050565b600082821c905092915050565b6000620009276000198460080262000907565b1980831691505092915050565b600062000942838362000914565b9150826002028217905092915050565b6200095d82620006e2565b67ffffffffffffffff811115620009795762000978620006ed565b5b6200098582546200074b565b62000992828285620008b7565b600060209050601f831160018114620009ca5760008415620009b5578287015190505b620009c1858262000934565b86555062000a31565b601f198416620009da8662000780565b60005b8281101562000a0457848901518255600182019150602085019450602081019050620009dd565b8683101562000a24578489015162000a20601f89168262000914565b8355505b6001600288020188555050505b505050505050565b6000819050919050565b62000a4e8162000a39565b82525050565b62000a5f816200060b565b82525050565b62000a7081620005c6565b82525050565b600060a08201905062000a8d600083018862000a43565b62000a9c602083018762000a43565b62000aab604083018662000a43565b62000aba606083018562000a54565b62000ac9608083018462000a65565b9695505050505050565b600082825260208201905092915050565b60005b8381101562000b0457808201518184015260208101905062000ae7565b60008484015250505050565b6000601f19601f8301169050919050565b600062000b2e82620006e2565b62000b3a818562000ad3565b935062000b4c81856020860162000ae4565b62000b578162000b10565b840191505092915050565b6000602082019050818103600083015262000b7e818462000b21565b905092915050565b600081519050919050565b6000819050602082019050919050565b600062000baf825162000a39565b80915050919050565b600062000bc58262000b86565b8262000bd18462000b91565b905062000bde8162000ba1565b9250602082101562000c215762000c1c7fffffffffffffffffffffffffffffffffffffffffffffffffffffffffffffffff83602003600802620007a5565b831692505b5050919050565b60805160a05160c05160e05161010051610120516101405161016051612ec462000ccd600039600081816106c90152818161086b0152818161090f01528181610f1201528181610fe5015281816110b9015281816111a501528181611515015281816115e801526116bc01526000611aad01526000611a7201526000611f9801526000611f7701526000611c2a01526000611c8001526000611ca90152612ec46000f3fe608060405234801561001057600080fd5b506004361061018e5760003560e01c806375b238fc116100de578063ad276d1411610097578063c7ba1f7311610071578063c7ba1f731461049d578063d547741f146104bb578063e63ab1e9146104d7578063f87a0d7d146104f55761018e565b8063ad276d1414610445578063b1b86b1314610463578063c0878f0c1461047f5761018e565b806375b238fc1461036757806384b0196e1461038557806391d14854146103a957806392c2becc146103d9578063a217fddf146103f7578063a2e1d830146104155761018e565b806336568abe1161014b5780635d00bb12116101255780635d00bb12146102cb57806365d65e86146102fb5780636717e41c14610319578063679aefce146103495761018e565b806336568abe1461027757806336f95670146102935780635b1fc64e146102af5761018e565b806301ffc9a714610193578063248a9ca3146101c357806329a37579146101f35780632e3806121461020f5780632f2ff15d1461023f57806334fcf4371461025b575b600080fd5b6101ad60048036038101906101a8919061218e565b610511565b6040516101ba91906121d6565b60405180910390f35b6101dd60048036038101906101d89190612227565b61058b565b6040516101ea9190612263565b60405180910390f35b61020d60048036038101906102089190612339565b6105aa565b005b6102296004803603810190610224919061244e565b610866565b60405161023691906121d6565b60405180910390f35b6102596004803603810190610254919061248e565b6109b4565b005b610275600480360381019061027091906124ce565b6109d6565b005b610291600480360381019061028c919061248e565b610a4c565b005b6102ad60048036038101906102a891906124fb565b610ac7565b005b6102c960048036038101906102c491906124ce565b610bfd565b005b6102e560048036038101906102e091906124ce565b610cad565b6040516102f291906121d6565b60405180910390f35b610303610cd7565b6040516103109190612537565b60405180910390f35b610333600480360381019061032e91906124ce565b610cfd565b60405161034091906121d6565b60405180910390f35b610351610d1d565b60405161035e9190612561565b60405180910390f35b61036f610d27565b60405161037c9190612263565b60405180910390f35b61038d610d4b565b6040516103a09796959493929190612705565b60405180910390f35b6103c360048036038101906103be919061248e565b610df5565b6040516103d091906121d6565b60405180910390f35b6103e1610e5f565b6040516103ee9190612263565b60405180910390f35b6103ff610e83565b60405161040c9190612263565b60405180910390f35b61042f600480360381019061042a91906124ce565b610e8a565b60405161043c9190612561565b60405180910390f35b61044d610ec7565b60405161045a9190612561565b60405180910390f35b61047d600480360381019061047891906127df565b610ecd565b005b6104876111a3565b604051610494919061289e565b60405180910390f35b6104a56111c7565b6040516104b29190612561565b60405180910390f35b6104d560048036038101906104d0919061248e565b6111cd565b005b6104df6111ef565b6040516104ec9190612263565b60405180910390f35b61050f600480360381019061050a919061290f565b611213565b005b60007f7965db0b000000000000000000000000000000000000000000000000000000007bffffffffffffffffffffffffffffffffffffffffffffffffffffffff1916827bffffffffffffffffffffffffffffffffffffffffffffffffffffffff191614806105845750610583826117b1565b5b9050919050565b6000806000838152602001908152602001600020600101549050919050565b6105b261181b565b7f25cf2b509f2a7f322675b2a5322b182f44ad2c03ac941a0af17c9b178f5d5d5f6105dc81611861565b82829050858590501461061b576040517fa24a13a600000000000000000000000000000000000000000000000000000000815260040160405180910390fd5b60c8858590501115610659576040517f0b7d62e200000000000000000000000000000000000000000000000000000000815260040160405180910390fd5b60005b8585905081101561081a57600084848381811061067c5761067b6129de565b5b90506020020135031561080d576000600654670de0b6b3a76400008686858181106106aa576106a96129de565b5b905060200201356106bb9190612a3c565b6106c59190612aad565b90507f000000000000000000000000000000000000000000000000000000000000000073ffffffffffffffffffffffffffffffffffffffff166340c10f19888885818110610716576107156129de565b5b905060200201602081019061072b91906124fb565b836040518363ffffffff1660e01b8152600401610749929190612ade565b600060405180830381600087803b15801561076357600080fd5b505af1158015610777573d6000803e3d6000fd5b5050505086868381811061078e5761078d6129de565b5b90506020020160208101906107a391906124fb565b73ffffffffffffffffffffffffffffffffffffffff167f42bac40829a302be689d7367c03a77902b298eaa7a1b264d4ddb42df5af515f88686858181106107ed576107ec6129de565b5b9050602002013583604051610803929190612b07565b60405180910390a2505b808060010191505061065c565b507f463aeac4784a5cf01f5e7e25e234853f55766c90cd1d412a24f827a8985ccc7d858590504260405161084f929190612b07565b60405180910390a150610860611875565b50505050565b6000817f000000000000000000000000000000000000000000000000000000000000000073ffffffffffffffffffffffffffffffffffffffff166370a08231856040518263ffffffff1660e01b81526004016108c29190612537565b602060405180830381865afa1580156108df573d6000803e3d6000fd5b505050506040513d601f19601f820116820180604052508101906109039190612b45565b101580156109ac5750817f000000000000000000000000000000000000000000000000000000000000000073ffffffffffffffffffffffffffffffffffffffff1663dd62ed3e85306040518363ffffffff1660e01b8152600401610968929190612b72565b602060405180830381865afa158015610985573d6000803e3d6000fd5b505050506040513d601f19601f820116820180604052508101906109a99190612b45565b10155b905092915050565b6109bd8261058b565b6109c681611861565b6109d0838361187e565b50505050565b7fa49807205ce4d355092ef5a8a18f56e8913cf4a201fbe287825b095693c21775610a0081611861565b60006004549050826004819055507fb38780ddde1f073d91c150de2696f3f7085883648ba21cc5ef01029cb21d19168184604051610a3f929190612b07565b60405180910390a1505050565b610a5461196f565b73ffffffffffffffffffffffffffffffffffffffff168173ffffffffffffffffffffffffffffffffffffffff1614610ab8576040517f6697b23200000000000000000000000000000000000000000000000000000000815260040160405180910390fd5b610ac28282611977565b505050565b7fa49807205ce4d355092ef5a8a18f56e8913cf4a201fbe287825b095693c21775610af181611861565b600073ffffffffffffffffffffffffffffffffffffffff168273ffffffffffffffffffffffffffffffffffffffff1603610b57576040517f18e7193f00000000000000000000000000000000000000000000000000000000815260040160405180910390fd5b6000600560009054906101000a900473ffffffffffffffffffffffffffffffffffffffff16905082600560006101000a81548173ffffffffffffffffffffffffffffffffffffffff021916908373ffffffffffffffffffffffffffffffffffffffff1602179055507f93f9d0472cb0fc12887bf8f1f15cc7a197a5acd122ab23b8dcc25de0191e0d5e8184604051610bf0929190612b72565b60405180910390a1505050565b7fa49807205ce4d355092ef5a8a18f56e8913cf4a201fbe287825b095693c21775610c2781611861565b60008203610c61576040517f2c5211c600000000000000000000000000000000000000000000000000000000815260040160405180910390fd5b60006006549050826006819055507f9d7277f39696e33905b1225a0043cee29a726af91b461f2b5ae25be04f42c7628184604051610ca0929190612b07565b60405180910390a1505050565b60006007600083815260200190815260200160002060009054906101000a900460ff169050919050565b600560009054906101000a900473ffffffffffffffffffffffffffffffffffffffff1681565b60076020528060005260406000206000915054906101000a900460ff1681565b6000600454905090565b7fa49807205ce4d355092ef5a8a18f56e8913cf4a201fbe287825b095693c2177581565b600060608060008060006060610d5f611a69565b610d67611aa4565b46306000801b600067ffffffffffffffff811115610d8857610d87612b9b565b5b604051908082528060200260200182016040528015610db65781602001602082028036833780820191505090505b507f0f00000000000000000000000000000000000000000000000000000000000000959493929190965096509650965096509650965090919293949596565b600080600084815260200190815260200160002060000160008373ffffffffffffffffffffffffffffffffffffffff1673ffffffffffffffffffffffffffffffffffffffff16815260200190815260200160002060009054906101000a900460ff16905092915050565b7f25cf2b509f2a7f322675b2a5322b182f44ad2c03ac941a0af17c9b178f5d5d5f81565b6000801b81565b60008060065403610e9e5760009050610ec2565b600654670de0b6b3a764000083610eb59190612a3c565b610ebf9190612aad565b90505b919050565b60045481565b610ed561181b565b60008103610f0f576040517f2c5211c600000000000000000000000000000000000000000000000000000000815260040160405180910390fd5b807f000000000000000000000000000000000000000000000000000000000000000073ffffffffffffffffffffffffffffffffffffffff166370a08231336040518263ffffffff1660e01b8152600401610f699190612537565b602060405180830381865afa158015610f86573d6000803e3d6000fd5b505050506040513d601f19601f82011682018060405250810190610faa9190612b45565b1015610fe2576040517ff4d678b800000000000000000000000000000000000000000000000000000000815260040160405180910390fd5b807f000000000000000000000000000000000000000000000000000000000000000073ffffffffffffffffffffffffffffffffffffffff1663dd62ed3e33306040518363ffffffff1660e01b815260040161103e929190612b72565b602060405180830381865afa15801561105b573d6000803e3d6000fd5b505050506040513d601f19601f8201168201806040525081019061107f9190612b45565b10156110b7576040517f13be252b00000000000000000000000000000000000000000000000000000000815260040160405180910390fd5b7f000000000000000000000000000000000000000000000000000000000000000073ffffffffffffffffffffffffffffffffffffffff166379cc679033836040518363ffffffff1660e01b8152600401611112929190612ade565b600060405180830381600087803b15801561112c57600080fd5b505af1158015611140573d6000803e3d6000fd5b505050503373ffffffffffffffffffffffffffffffffffffffff167f784e131f41825c0f4dedaf1b303cfd417f3603b2e95ed4a0c0bdc2176dbbc3ee82858560405161118e93929190612c06565b60405180910390a261119e611875565b505050565b7f000000000000000000000000000000000000000000000000000000000000000081565b60065481565b6111d68261058b565b6111df81611861565b6111e98383611977565b50505050565b7f65d7a28e3265b37a6474929f336521b332c1681b933f6cb9f3376673440d862a81565b61121b61181b565b60008703611255576040517f2c5211c600000000000000000000000000000000000000000000000000000000815260040160405180910390fd5b8242111561128f576040517f0819bdcd00000000000000000000000000000000000000000000000000000000815260040160405180910390fd5b600073ffffffffffffffffffffffffffffffffffffffff16600560009054906101000a900473ffffffffffffffffffffffffffffffffffffffff1673ffffffffffffffffffffffffffffffffffffffff1603611317576040517f18e7193f00000000000000000000000000000000000000000000000000000000815260040160405180910390fd5b6007600085815260200190815260200160002060009054906101000a900460ff161561136f576040517f1fb09b8000000000000000000000000000000000000000000000000000000000815260040160405180910390fd5b60007fc1c5a2bdaeb491a0ae90847b2f5aad8413011cf337337d9a4cd956f9b1eb74ea898989896040516113a4929190612c68565b604051809103902088886040516020016113c396959493929190612c81565b60405160208183030381529060405280519060200120905060006113e682611adf565b905060006114388286868080601f016020809104026020016040519081016040528093929190818152602001838380828437600081840152601f19601f82011690508083019250505050505050611af9565b9050600560009054906101000a900473ffffffffffffffffffffffffffffffffffffffff1673ffffffffffffffffffffffffffffffffffffffff168173ffffffffffffffffffffffffffffffffffffffff16146114c1576040517f8baa579f00000000000000000000000000000000000000000000000000000000815260040160405180910390fd5b60016007600089815260200190815260200160002060006101000a81548160ff0219169083151502179055506000600654670de0b6b3a76400008c6115069190612a3c565b6115109190612aad565b9050807f000000000000000000000000000000000000000000000000000000000000000073ffffffffffffffffffffffffffffffffffffffff166370a082318e6040518263ffffffff1660e01b815260040161156c9190612537565b602060405180830381865afa158015611589573d6000803e3d6000fd5b505050506040513d601f19601f820116820180604052508101906115ad9190612b45565b10156115e5576040517fb01137dc00000000000000000000000000000000000000000000000000000000815260040160405180910390fd5b807f000000000000000000000000000000000000000000000000000000000000000073ffffffffffffffffffffffffffffffffffffffff1663dd62ed3e8e306040518363ffffffff1660e01b8152600401611641929190612b72565b602060405180830381865afa15801561165e573d6000803e3d6000fd5b505050506040513d601f19601f820116820180604052508101906116829190612b45565b10156116ba576040517ff959feaf00000000000000000000000000000000000000000000000000000000815260040160405180910390fd5b7f000000000000000000000000000000000000000000000000000000000000000073ffffffffffffffffffffffffffffffffffffffff166379cc67908d836040518363ffffffff1660e01b8152600401611715929190612ade565b600060405180830381600087803b15801561172f57600080fd5b505af1158015611743573d6000803e3d6000fd5b505050508b73ffffffffffffffffffffffffffffffffffffffff167fe5fa06a568cf9f5faa2b99ee52a6043b2126b9ab1af4d3f1721959a6b3765fa38c838d8d6040516117939493929190612ce2565b60405180910390a2505050506117a7611875565b5050505050505050565b60007f01ffc9a7000000000000000000000000000000000000000000000000000000007bffffffffffffffffffffffffffffffffffffffffffffffffffffffff1916827bffffffffffffffffffffffffffffffffffffffffffffffffffffffff1916149050919050565b600260015403611857576040517f3ee5aeb500000000000000000000000000000000000000000000000000000000815260040160405180910390fd5b6002600181905550565b6118728161186d61196f565b611b25565b50565b60018081905550565b600061188a8383610df5565b61196457600160008085815260200190815260200160002060000160008473ffffffffffffffffffffffffffffffffffffffff1673ffffffffffffffffffffffffffffffffffffffff16815260200190815260200160002060006101000a81548160ff02191690831515021790555061190161196f565b73ffffffffffffffffffffffffffffffffffffffff168273ffffffffffffffffffffffffffffffffffffffff16847f2f8788117e7eff1d82e926ec794901d17c78024a50270940304540a733656f0d60405160405180910390a460019050611969565b600090505b92915050565b600033905090565b60006119838383610df5565b15611a5e57600080600085815260200190815260200160002060000160008473ffffffffffffffffffffffffffffffffffffffff1673ffffffffffffffffffffffffffffffffffffffff16815260200190815260200160002060006101000a81548160ff0219169083151502179055506119fb61196f565b73ffffffffffffffffffffffffffffffffffffffff168273ffffffffffffffffffffffffffffffffffffffff16847ff6391f5c32d9c69d2a47ea670b442974b53935d1edc7fd64eb21e047a839171b60405160405180910390a460019050611a63565b600090505b92915050565b6060611a9f60027f0000000000000000000000000000000000000000000000000000000000000000611b7690919063ffffffff16565b905090565b6060611ada60037f0000000000000000000000000000000000000000000000000000000000000000611b7690919063ffffffff16565b905090565b6000611af2611aec611c26565b83611cdd565b9050919050565b600080600080611b098686611d1e565b925092509250611b198282611d7a565b82935050505092915050565b611b2f8282610df5565b611b725780826040517fe2517d3f000000000000000000000000000000000000000000000000000000008152600401611b69929190612d22565b60405180910390fd5b5050565b606060ff60001b8314611b9357611b8c83611ede565b9050611c20565b818054611b9f90612d7a565b80601f0160208091040260200160405190810160405280929190818152602001828054611bcb90612d7a565b8015611c185780601f10611bed57610100808354040283529160200191611c18565b820191906000526020600020905b815481529060010190602001808311611bfb57829003601f168201915b505050505090505b92915050565b60007f000000000000000000000000000000000000000000000000000000000000000073ffffffffffffffffffffffffffffffffffffffff163073ffffffffffffffffffffffffffffffffffffffff16148015611ca257507f000000000000000000000000000000000000000000000000000000000000000046145b15611ccf577f00000000000000000000000000000000000000000000000000000000000000009050611cda565b611cd7611f52565b90505b90565b60006040517f190100000000000000000000000000000000000000000000000000000000000081528360028201528260228201526042812091505092915050565b60008060006041845103611d635760008060006020870151925060408701519150606087015160001a9050611d5588828585611fe8565b955095509550505050611d73565b60006002855160001b9250925092505b9250925092565b60006003811115611d8e57611d8d612dab565b5b826003811115611da157611da0612dab565b5b0315611eda5760016003811115611dbb57611dba612dab565b5b826003811115611dce57611dcd612dab565b5b03611e05576040517ff645eedf00000000000000000000000000000000000000000000000000000000815260040160405180910390fd5b60026003811115611e1957611e18612dab565b5b826003811115611e2c57611e2b612dab565b5b03611e71578060001c6040517ffce698f7000000000000000000000000000000000000000000000000000000008152600401611e689190612561565b60405180910390fd5b600380811115611e8457611e83612dab565b5b826003811115611e9757611e96612dab565b5b03611ed957806040517fd78bce0c000000000000000000000000000000000000000000000000000000008152600401611ed09190612263565b60405180910390fd5b5b5050565b60606000611eeb836120dc565b90506000602067ffffffffffffffff811115611f0a57611f09612b9b565b5b6040519080825280601f01601f191660200182016040528015611f3c5781602001600182028036833780820191505090505b5090508181528360208201528092505050919050565b60007f8b73c3c69bb8fe3d512ecc4cf759cc79239f7b179b0ffacaa9a75d522b39400f7f00000000000000000000000000000000000000000000000000000000000000007f00000000000000000000000000000000000000000000000000000000000000004630604051602001611fcd959493929190612dda565b60405160208183030381529060405280519060200120905090565b60008060007f7fffffffffffffffffffffffffffffff5d576e7357a4501ddfe92f46681b20a08460001c11156120285760006003859250925092506120d2565b60006001888888886040516000815260200160405260405161204d9493929190612e49565b6020604051602081039080840390855afa15801561206f573d6000803e3d6000fd5b505050602060405103519050600073ffffffffffffffffffffffffffffffffffffffff168173ffffffffffffffffffffffffffffffffffffffff16036120c357600060016000801b935093509350506120d2565b8060008060001b935093509350505b9450945094915050565b60008060ff8360001c169050601f811115612123576040517fb3512b0c00000000000000000000000000000000000000000000000000000000815260040160405180910390fd5b80915050919050565b600080fd5b600080fd5b60007fffffffff0000000000000000000000000000000000000000000000000000000082169050919050565b61216b81612136565b811461217657600080fd5b50565b60008135905061218881612162565b92915050565b6000602082840312156121a4576121a361212c565b5b60006121b284828501612179565b91505092915050565b60008115159050919050565b6121d0816121bb565b82525050565b60006020820190506121eb60008301846121c7565b92915050565b6000819050919050565b612204816121f1565b811461220f57600080fd5b50565b600081359050612221816121fb565b92915050565b60006020828403121561223d5761223c61212c565b5b600061224b84828501612212565b91505092915050565b61225d816121f1565b82525050565b60006020820190506122786000830184612254565b92915050565b600080fd5b600080fd5b600080fd5b60008083601f8401126122a3576122a261227e565b5b8235905067ffffffffffffffff8111156122c0576122bf612283565b5b6020830191508360208202830111156122dc576122db612288565b5b9250929050565b60008083601f8401126122f9576122f861227e565b5b8235905067ffffffffffffffff81111561231657612315612283565b5b60208301915083602082028301111561233257612331612288565b5b9250929050565b600080600080604085870312156123535761235261212c565b5b600085013567ffffffffffffffff81111561237157612370612131565b5b61237d8782880161228d565b9450945050602085013567ffffffffffffffff8111156123a05761239f612131565b5b6123ac878288016122e3565b925092505092959194509250565b600073ffffffffffffffffffffffffffffffffffffffff82169050919050565b60006123e5826123ba565b9050919050565b6123f5816123da565b811461240057600080fd5b50565b600081359050612412816123ec565b92915050565b6000819050919050565b61242b81612418565b811461243657600080fd5b50565b60008135905061244881612422565b92915050565b600080604083850312156124655761246461212c565b5b600061247385828601612403565b925050602061248485828601612439565b9150509250929050565b600080604083850312156124a5576124a461212c565b5b60006124b385828601612212565b92505060206124c485828601612403565b9150509250929050565b6000602082840312156124e4576124e361212c565b5b60006124f284828501612439565b91505092915050565b6000602082840312156125115761251061212c565b5b600061251f84828501612403565b91505092915050565b612531816123da565b82525050565b600060208201905061254c6000830184612528565b92915050565b61255b81612418565b82525050565b60006020820190506125766000830184612552565b92915050565b60007fff0000000000000000000000000000000000000000000000000000000000000082169050919050565b6125b18161257c565b82525050565b600081519050919050565b600082825260208201905092915050565b60005b838110156125f15780820151818401526020810190506125d6565b60008484015250505050565b6000601f19601f8301169050919050565b6000612619826125b7565b61262381856125c2565b93506126338185602086016125d3565b61263c816125fd565b840191505092915050565b600081519050919050565b600082825260208201905092915050565b6000819050602082019050919050565b61267c81612418565b82525050565b600061268e8383612673565b60208301905092915050565b6000602082019050919050565b60006126b282612647565b6126bc8185612652565b93506126c783612663565b8060005b838110156126f85781516126df8882612682565b97506126ea8361269a565b9250506001810190506126cb565b5085935050505092915050565b600060e08201905061271a600083018a6125a8565b818103602083015261272c818961260e565b90508181036040830152612740818861260e565b905061274f6060830187612552565b61275c6080830186612528565b61276960a0830185612254565b81810360c083015261277b81846126a7565b905098975050505050505050565b60008083601f84011261279f5761279e61227e565b5b8235905067ffffffffffffffff8111156127bc576127bb612283565b5b6020830191508360018202830111156127d8576127d7612288565b5b9250929050565b6000806000604084860312156127f8576127f761212c565b5b600084013567ffffffffffffffff81111561281657612815612131565b5b61282286828701612789565b9350935050602061283586828701612439565b9150509250925092565b6000819050919050565b600061286461285f61285a846123ba565b61283f565b6123ba565b9050919050565b600061287682612849565b9050919050565b60006128888261286b565b9050919050565b6128988161287d565b82525050565b60006020820190506128b3600083018461288f565b92915050565b60008083601f8401126128cf576128ce61227e565b5b8235905067ffffffffffffffff8111156128ec576128eb612283565b5b60208301915083600182028301111561290857612907612288565b5b9250929050565b60008060008060008060008060c0898b03121561292f5761292e61212c565b5b600061293d8b828c01612403565b985050602061294e8b828c01612439565b975050604089013567ffffffffffffffff81111561296f5761296e612131565b5b61297b8b828c01612789565b9650965050606061298e8b828c01612439565b945050608061299f8b828c01612439565b93505060a089013567ffffffffffffffff8111156129c0576129bf612131565b5b6129cc8b828c016128b9565b92509250509295985092959890939650565b7f4e487b7100000000000000000000000000000000000000000000000000000000600052603260045260246000fd5b7f4e487b7100000000000000000000000000000000000000000000000000000000600052601160045260246000fd5b6000612a4782612418565b9150612a5283612418565b9250828202612a6081612418565b91508282048414831517612a7757612a76612a0d565b5b5092915050565b7f4e487b7100000000000000000000000000000000000000000000000000000000600052601260045260246000fd5b6000612ab882612418565b9150612ac383612418565b925082612ad357612ad2612a7e565b5b828204905092915050565b6000604082019050612af36000830185612528565b612b006020830184612552565b9392505050565b6000604082019050612b1c6000830185612552565b612b296020830184612552565b9392505050565b600081519050612b3f81612422565b92915050565b600060208284031215612b5b57612b5a61212c565b5b6000612b6984828501612b30565b91505092915050565b6000604082019050612b876000830185612528565b612b946020830184612528565b9392505050565b7f4e487b7100000000000000000000000000000000000000000000000000000000600052604160045260246000fd5b82818337600083830152505050565b6000612be583856125c2565b9350612bf2838584612bca565b612bfb836125fd565b840190509392505050565b6000604082019050612c1b6000830186612552565b8181036020830152612c2e818486612bd9565b9050949350505050565b600081905092915050565b6000612c4f8385612c38565b9350612c5c838584612bca565b82840190509392505050565b6000612c75828486612c43565b91508190509392505050565b600060c082019050612c966000830189612254565b612ca36020830188612528565b612cb06040830187612552565b612cbd6060830186612254565b612cca6080830185612552565b612cd760a0830184612552565b979650505050505050565b6000606082019050612cf76000830187612552565b612d046020830186612552565b8181036040830152612d17818486612bd9565b905095945050505050565b6000604082019050612d376000830185612528565b612d446020830184612254565b9392505050565b7f4e487b7100000000000000000000000000000000000000000000000000000000600052602260045260246000fd5b60006002820490506001821680612d9257607f821691505b602082108103612da557612da4612d4b565b5b50919050565b7f4e487b7100000000000000000000000000000000000000000000000000000000600052602160045260246000fd5b600060a082019050612def6000830188612254565b612dfc6020830187612254565b612e096040830186612254565b612e166060830185612552565b612e236080830184612528565b9695505050505050565b600060ff82169050919050565b612e4381612e2d565b82525050565b6000608082019050612e5e6000830187612254565b612e6b6020830186612e3a565b612e786040830185612254565b612e856060830184612254565b9594505050505056fea26469706673582212200609244826b6956892b888379198b9f8f391729630e1becad90ac411684e4b8f64736f6c63430008180033","linkReferences":{}},"methodIdentifiers":{"ADMIN_ROLE()":"75b238fc","BACKEND_ROLE()":"92c2becc","DEFAULT_ADMIN_ROLE()":"a217fddf","PAUSER_ROLE()":"e63ab1e9","backendSigner()":"65d65e86","batchReconcile(address[],uint256[])":"29a37579","canUserRedeem(address,uint256)":"2e380612","eip712Domain()":"84b0196e","getRate()":"679aefce","getRoleAdmin(bytes32)":"248a9ca3","grantRole(bytes32,address)":"2f2ff15d","hasRole(bytes32,address)":"91d14854","isNonceUsed(uint256)":"5d00bb12","pointsToWell(uint256)":"a2e1d830","pointsToWellRate()":"c7ba1f73","ratePerVoucher()":"ad276d14","redeem(string,uint256)":"b1b86b13","redeemWithPoints(address,uint256,string,uint256,uint256,bytes)":"f87a0d7d","renounceRole(bytes32,address)":"36568abe","revokeRole(bytes32,address)":"d547741f","setBackendSigner(address)":"36f95670","setPointsToWellRate(uint256)":"5b1fc64e","setRate(uint256)":"34fcf437","supportsInterface(bytes4)":"01ffc9a7","usedNonces(uint256)":"6717e41c","well()":"c0878f0c"},"id":70}